{
  "contractName": "Color",
  "abi": [
    {
      "inputs": [],
      "payable": false,
      "stateMutability": "nonpayable",
      "type": "constructor"
    },
    {
      "anonymous": false,
      "inputs": [
        {
          "indexed": true,
          "internalType": "address",
          "name": "owner",
          "type": "address"
        },
        {
          "indexed": true,
          "internalType": "address",
          "name": "approved",
          "type": "address"
        },
        {
          "indexed": true,
          "internalType": "uint256",
          "name": "tokenId",
          "type": "uint256"
        }
      ],
      "name": "Approval",
      "type": "event"
    },
    {
      "anonymous": false,
      "inputs": [
        {
          "indexed": true,
          "internalType": "address",
          "name": "owner",
          "type": "address"
        },
        {
          "indexed": true,
          "internalType": "address",
          "name": "operator",
          "type": "address"
        },
        {
          "indexed": false,
          "internalType": "bool",
          "name": "approved",
          "type": "bool"
        }
      ],
      "name": "ApprovalForAll",
      "type": "event"
    },
    {
      "anonymous": false,
      "inputs": [
        {
          "indexed": true,
          "internalType": "address",
          "name": "from",
          "type": "address"
        },
        {
          "indexed": true,
          "internalType": "address",
          "name": "to",
          "type": "address"
        },
        {
          "indexed": true,
          "internalType": "uint256",
          "name": "tokenId",
          "type": "uint256"
        }
      ],
      "name": "Transfer",
      "type": "event"
    },
    {
      "constant": false,
      "inputs": [
        {
          "internalType": "address",
          "name": "to",
          "type": "address"
        },
        {
          "internalType": "uint256",
          "name": "tokenId",
          "type": "uint256"
        }
      ],
      "name": "approve",
      "outputs": [],
      "payable": false,
      "stateMutability": "nonpayable",
      "type": "function"
    },
    {
      "constant": true,
      "inputs": [
        {
          "internalType": "address",
          "name": "owner",
          "type": "address"
        }
      ],
      "name": "balanceOf",
      "outputs": [
        {
          "internalType": "uint256",
          "name": "",
          "type": "uint256"
        }
      ],
      "payable": false,
      "stateMutability": "view",
      "type": "function"
    },
    {
      "constant": true,
      "inputs": [
        {
          "internalType": "uint256",
          "name": "",
          "type": "uint256"
        }
      ],
      "name": "colors",
      "outputs": [
        {
          "internalType": "string",
          "name": "",
          "type": "string"
        }
      ],
      "payable": false,
      "stateMutability": "view",
      "type": "function"
    },
    {
      "constant": true,
      "inputs": [
        {
          "internalType": "uint256",
          "name": "tokenId",
          "type": "uint256"
        }
      ],
      "name": "getApproved",
      "outputs": [
        {
          "internalType": "address",
          "name": "",
          "type": "address"
        }
      ],
      "payable": false,
      "stateMutability": "view",
      "type": "function"
    },
    {
      "constant": true,
      "inputs": [
        {
          "internalType": "address",
          "name": "owner",
          "type": "address"
        },
        {
          "internalType": "address",
          "name": "operator",
          "type": "address"
        }
      ],
      "name": "isApprovedForAll",
      "outputs": [
        {
          "internalType": "bool",
          "name": "",
          "type": "bool"
        }
      ],
      "payable": false,
      "stateMutability": "view",
      "type": "function"
    },
    {
      "constant": true,
      "inputs": [],
      "name": "name",
      "outputs": [
        {
          "internalType": "string",
          "name": "",
          "type": "string"
        }
      ],
      "payable": false,
      "stateMutability": "view",
      "type": "function"
    },
    {
      "constant": true,
      "inputs": [
        {
          "internalType": "uint256",
          "name": "tokenId",
          "type": "uint256"
        }
      ],
      "name": "ownerOf",
      "outputs": [
        {
          "internalType": "address",
          "name": "",
          "type": "address"
        }
      ],
      "payable": false,
      "stateMutability": "view",
      "type": "function"
    },
    {
      "constant": false,
      "inputs": [
        {
          "internalType": "address",
          "name": "from",
          "type": "address"
        },
        {
          "internalType": "address",
          "name": "to",
          "type": "address"
        },
        {
          "internalType": "uint256",
          "name": "tokenId",
          "type": "uint256"
        }
      ],
      "name": "safeTransferFrom",
      "outputs": [],
      "payable": false,
      "stateMutability": "nonpayable",
      "type": "function"
    },
    {
      "constant": false,
      "inputs": [
        {
          "internalType": "address",
          "name": "from",
          "type": "address"
        },
        {
          "internalType": "address",
          "name": "to",
          "type": "address"
        },
        {
          "internalType": "uint256",
          "name": "tokenId",
          "type": "uint256"
        },
        {
          "internalType": "bytes",
          "name": "_data",
          "type": "bytes"
        }
      ],
      "name": "safeTransferFrom",
      "outputs": [],
      "payable": false,
      "stateMutability": "nonpayable",
      "type": "function"
    },
    {
      "constant": false,
      "inputs": [
        {
          "internalType": "address",
          "name": "to",
          "type": "address"
        },
        {
          "internalType": "bool",
          "name": "approved",
          "type": "bool"
        }
      ],
      "name": "setApprovalForAll",
      "outputs": [],
      "payable": false,
      "stateMutability": "nonpayable",
      "type": "function"
    },
    {
      "constant": true,
      "inputs": [
        {
          "internalType": "bytes4",
          "name": "interfaceId",
          "type": "bytes4"
        }
      ],
      "name": "supportsInterface",
      "outputs": [
        {
          "internalType": "bool",
          "name": "",
          "type": "bool"
        }
      ],
      "payable": false,
      "stateMutability": "view",
      "type": "function"
    },
    {
      "constant": true,
      "inputs": [],
      "name": "symbol",
      "outputs": [
        {
          "internalType": "string",
          "name": "",
          "type": "string"
        }
      ],
      "payable": false,
      "stateMutability": "view",
      "type": "function"
    },
    {
      "constant": true,
      "inputs": [
        {
          "internalType": "uint256",
          "name": "index",
          "type": "uint256"
        }
      ],
      "name": "tokenByIndex",
      "outputs": [
        {
          "internalType": "uint256",
          "name": "",
          "type": "uint256"
        }
      ],
      "payable": false,
      "stateMutability": "view",
      "type": "function"
    },
    {
      "constant": true,
      "inputs": [
        {
          "internalType": "address",
          "name": "owner",
          "type": "address"
        },
        {
          "internalType": "uint256",
          "name": "index",
          "type": "uint256"
        }
      ],
      "name": "tokenOfOwnerByIndex",
      "outputs": [
        {
          "internalType": "uint256",
          "name": "",
          "type": "uint256"
        }
      ],
      "payable": false,
      "stateMutability": "view",
      "type": "function"
    },
    {
      "constant": true,
      "inputs": [
        {
          "internalType": "uint256",
          "name": "tokenId",
          "type": "uint256"
        }
      ],
      "name": "tokenURI",
      "outputs": [
        {
          "internalType": "string",
          "name": "",
          "type": "string"
        }
      ],
      "payable": false,
      "stateMutability": "view",
      "type": "function"
    },
    {
      "constant": true,
      "inputs": [],
      "name": "totalSupply",
      "outputs": [
        {
          "internalType": "uint256",
          "name": "",
          "type": "uint256"
        }
      ],
      "payable": false,
      "stateMutability": "view",
      "type": "function"
    },
    {
      "constant": false,
      "inputs": [
        {
          "internalType": "address",
          "name": "from",
          "type": "address"
        },
        {
          "internalType": "address",
          "name": "to",
          "type": "address"
        },
        {
          "internalType": "uint256",
          "name": "tokenId",
          "type": "uint256"
        }
      ],
      "name": "transferFrom",
      "outputs": [],
      "payable": false,
      "stateMutability": "nonpayable",
      "type": "function"
    },
    {
      "constant": false,
      "inputs": [
        {
          "internalType": "string",
          "name": "_color",
          "type": "string"
        },
        {
          "internalType": "uint256",
          "name": "dose",
          "type": "uint256"
        }
      ],
      "name": "mint",
      "outputs": [],
      "payable": false,
      "stateMutability": "nonpayable",
      "type": "function"
    },
    {
      "constant": false,
      "inputs": [
        {
          "internalType": "string",
          "name": "_name",
          "type": "string"
        },
        {
          "internalType": "uint256",
          "name": "dose",
          "type": "uint256"
        }
      ],
      "name": "editSVG",
      "outputs": [
        {
          "internalType": "string",
          "name": "",
          "type": "string"
        }
      ],
      "payable": false,
      "stateMutability": "nonpayable",
      "type": "function"
    }
  ],
  "bytecode": "0x60806040526040518061482001604052806147fb815260200162002a966147fb9139600d9080519060200190620000389291906200025a565b503480156200004657600080fd5b506040518060400160405280600581526020017f436f6c6f720000000000000000000000000000000000000000000000000000008152506040518060400160405280600581526020017f434f4c4f520000000000000000000000000000000000000000000000000000008152508181620000cd6301ffc9a760e01b6200015160201b60201c565b620000e56380ac58cd60e01b6200015160201b60201c565b620000fd63780e9d6360e01b6200015160201b60201c565b8160099080519060200190620001159291906200025a565b5080600a90805190602001906200012e9291906200025a565b5062000147635b5e139f60e01b6200015160201b60201c565b5050505062000309565b63ffffffff60e01b817bffffffffffffffffffffffffffffffffffffffffffffffffffffffff19161415620001ee576040517f08c379a000000000000000000000000000000000000000000000000000000000815260040180806020018281038252601c8152602001807f4552433136353a20696e76616c696420696e746572666163652069640000000081525060200191505060405180910390fd5b6001600080837bffffffffffffffffffffffffffffffffffffffffffffffffffffffff19167bffffffffffffffffffffffffffffffffffffffffffffffffffffffff1916815260200190815260200160002060006101000a81548160ff02191690831515021790555050565b828054600181600116156101000203166002900490600052602060002090601f016020900481019282601f106200029d57805160ff1916838001178555620002ce565b82800160010185558215620002ce579182015b82811115620002cd578251825591602001919060010190620002b0565b5b509050620002dd9190620002e1565b5090565b6200030691905b8082111562000302576000816000905550600101620002e8565b5090565b90565b61277d80620003196000396000f3fe608060405234801561001057600080fd5b50600436106101215760003560e01c80634f6ccce7116100ad578063a22cb46511610071578063a22cb465146107b4578063b88d4fde14610804578063bd11f69d14610909578063c87b56dd146109b0578063e985e9c514610a5757610121565b80634f6ccce7146104eb5780636352211e1461052d57806370a082311461059b57806372ae61fc146105f357806395d89b411461073157610121565b8063095ea7b3116100f4578063095ea7b31461034157806318160ddd1461038f57806323b872dd146103ad5780632f745c591461041b57806342842e0e1461047d57610121565b806301ffc9a714610126578063056b01ce1461018b57806306fdde0314610250578063081812fc146102d3575b600080fd5b6101716004803603602081101561013c57600080fd5b8101908080357bffffffffffffffffffffffffffffffffffffffffffffffffffffffff19169060200190929190505050610ad3565b604051808215151515815260200191505060405180910390f35b61024e600480360360408110156101a157600080fd5b81019080803590602001906401000000008111156101be57600080fd5b8201836020820111156101d057600080fd5b803590602001918460018302840111640100000000831117156101f257600080fd5b91908080601f016020809104026020016040519081016040528093929190818152602001838380828437600081840152601f19601f82011690508083019250505050505050919291929080359060200190929190505050610b3a565b005b610258610b9a565b6040518080602001828103825283818151815260200191508051906020019080838360005b8381101561029857808201518184015260208101905061027d565b50505050905090810190601f1680156102c55780820380516001836020036101000a031916815260200191505b509250505060405180910390f35b6102ff600480360360208110156102e957600080fd5b8101908080359060200190929190505050610c3c565b604051808273ffffffffffffffffffffffffffffffffffffffff1673ffffffffffffffffffffffffffffffffffffffff16815260200191505060405180910390f35b61038d6004803603604081101561035757600080fd5b81019080803573ffffffffffffffffffffffffffffffffffffffff16906020019092919080359060200190929190505050610cd7565b005b610397610eb0565b6040518082815260200191505060405180910390f35b610419600480360360608110156103c357600080fd5b81019080803573ffffffffffffffffffffffffffffffffffffffff169060200190929190803573ffffffffffffffffffffffffffffffffffffffff16906020019092919080359060200190929190505050610ebd565b005b6104676004803603604081101561043157600080fd5b81019080803573ffffffffffffffffffffffffffffffffffffffff16906020019092919080359060200190929190505050610f2c565b6040518082815260200191505060405180910390f35b6104e96004803603606081101561049357600080fd5b81019080803573ffffffffffffffffffffffffffffffffffffffff169060200190929190803573ffffffffffffffffffffffffffffffffffffffff16906020019092919080359060200190929190505050610feb565b005b6105176004803603602081101561050157600080fd5b810190808035906020019092919050505061100b565b6040518082815260200191505060405180910390f35b6105596004803603602081101561054357600080fd5b810190808035906020019092919050505061108b565b604051808273ffffffffffffffffffffffffffffffffffffffff1673ffffffffffffffffffffffffffffffffffffffff16815260200191505060405180910390f35b6105dd600480360360208110156105b157600080fd5b81019080803573ffffffffffffffffffffffffffffffffffffffff169060200190929190505050611153565b6040518082815260200191505060405180910390f35b6106b66004803603604081101561060957600080fd5b810190808035906020019064010000000081111561062657600080fd5b82018360208201111561063857600080fd5b8035906020019184600183028401116401000000008311171561065a57600080fd5b91908080601f016020809104026020016040519081016040528093929190818152602001838380828437600081840152601f19601f82011690508083019250505050505050919291929080359060200190929190505050611228565b6040518080602001828103825283818151815260200191508051906020019080838360005b838110156106f65780820151818401526020810190506106db565b50505050905090810190601f1680156107235780820380516001836020036101000a031916815260200191505b509250505060405180910390f35b6107396112cd565b6040518080602001828103825283818151815260200191508051906020019080838360005b8381101561077957808201518184015260208101905061075e565b50505050905090810190601f1680156107a65780820380516001836020036101000a031916815260200191505b509250505060405180910390f35b610802600480360360408110156107ca57600080fd5b81019080803573ffffffffffffffffffffffffffffffffffffffff16906020019092919080351515906020019092919050505061136f565b005b6109076004803603608081101561081a57600080fd5b81019080803573ffffffffffffffffffffffffffffffffffffffff169060200190929190803573ffffffffffffffffffffffffffffffffffffffff169060200190929190803590602001909291908035906020019064010000000081111561088157600080fd5b82018360208201111561089357600080fd5b803590602001918460018302840111640100000000831117156108b557600080fd5b91908080601f016020809104026020016040519081016040528093929190818152602001838380828437600081840152601f19601f820116905080830192505050505050509192919290505050611512565b005b6109356004803603602081101561091f57600080fd5b8101908080359060200190929190505050611584565b6040518080602001828103825283818151815260200191508051906020019080838360005b8381101561097557808201518184015260208101905061095a565b50505050905090810190601f1680156109a25780820380516001836020036101000a031916815260200191505b509250505060405180910390f35b6109dc600480360360208110156109c657600080fd5b810190808035906020019092919050505061163d565b6040518080602001828103825283818151815260200191508051906020019080838360005b83811015610a1c578082015181840152602081019050610a01565b50505050905090810190601f168015610a495780820380516001836020036101000a031916815260200191505b509250505060405180910390f35b610ab960048036036040811015610a6d57600080fd5b81019080803573ffffffffffffffffffffffffffffffffffffffff169060200190929190803573ffffffffffffffffffffffffffffffffffffffff169060200190929190505050611750565b604051808215151515815260200191505060405180910390f35b6000806000837bffffffffffffffffffffffffffffffffffffffffffffffffffffffff19167bffffffffffffffffffffffffffffffffffffffffffffffffffffffff1916815260200190815260200160002060009054906101000a900460ff169050919050565b6060610b468383611228565b90506000600c829080600181540180825580915050906001820390600052602060002001600090919290919091509080519060200190610b8792919061243d565b509050610b9433826117e4565b50505050565b606060098054600181600116156101000203166002900480601f016020809104026020016040519081016040528092919081815260200182805460018160011615610100020316600290048015610c325780601f10610c0757610100808354040283529160200191610c32565b820191906000526020600020905b815481529060010190602001808311610c1557829003601f168201915b5050505050905090565b6000610c4782611805565b610c9c576040517f08c379a000000000000000000000000000000000000000000000000000000000815260040180806020018281038252602c815260200180612647602c913960400191505060405180910390fd5b6002600083815260200190815260200160002060009054906101000a900473ffffffffffffffffffffffffffffffffffffffff169050919050565b6000610ce28261108b565b90508073ffffffffffffffffffffffffffffffffffffffff168373ffffffffffffffffffffffffffffffffffffffff161415610d69576040517f08c379a00000000000000000000000000000000000000000000000000000000081526004018080602001828103825260218152602001806126cb6021913960400191505060405180910390fd5b8073ffffffffffffffffffffffffffffffffffffffff163373ffffffffffffffffffffffffffffffffffffffff161480610da95750610da88133611750565b5b610dfe576040517f08c379a00000000000000000000000000000000000000000000000000000000081526004018080602001828103825260388152602001806125bc6038913960400191505060405180910390fd5b826002600084815260200190815260200160002060006101000a81548173ffffffffffffffffffffffffffffffffffffffff021916908373ffffffffffffffffffffffffffffffffffffffff160217905550818373ffffffffffffffffffffffffffffffffffffffff168273ffffffffffffffffffffffffffffffffffffffff167f8c5be1e5ebec7d5bd14f71427d1e84f3dd0314c0f7b2291e5b200ac8c7c3b92560405160405180910390a4505050565b6000600780549050905090565b610ec73382611877565b610f1c576040517f08c379a00000000000000000000000000000000000000000000000000000000081526004018080602001828103825260318152602001806126ec6031913960400191505060405180910390fd5b610f2783838361196b565b505050565b6000610f3783611153565b8210610f8e576040517f08c379a000000000000000000000000000000000000000000000000000000000815260040180806020018281038252602b81526020018061250f602b913960400191505060405180910390fd5b600560008473ffffffffffffffffffffffffffffffffffffffff1673ffffffffffffffffffffffffffffffffffffffff1681526020019081526020016000208281548110610fd857fe5b9060005260206000200154905092915050565b61100683838360405180602001604052806000815250611512565b505050565b6000611015610eb0565b821061106c576040517f08c379a000000000000000000000000000000000000000000000000000000000815260040180806020018281038252602c81526020018061271d602c913960400191505060405180910390fd5b6007828154811061107957fe5b90600052602060002001549050919050565b6000806001600084815260200190815260200160002060009054906101000a900473ffffffffffffffffffffffffffffffffffffffff169050600073ffffffffffffffffffffffffffffffffffffffff168173ffffffffffffffffffffffffffffffffffffffff16141561114a576040517f08c379a000000000000000000000000000000000000000000000000000000000815260040180806020018281038252602981526020018061261e6029913960400191505060405180910390fd5b80915050919050565b60008073ffffffffffffffffffffffffffffffffffffffff168273ffffffffffffffffffffffffffffffffffffffff1614156111da576040517f08c379a000000000000000000000000000000000000000000000000000000000815260040180806020018281038252602a8152602001806125f4602a913960400191505060405180910390fd5b611221600360008473ffffffffffffffffffffffffffffffffffffffff1673ffffffffffffffffffffffffffffffffffffffff16815260200190815260200160002061198f565b9050919050565b6060600d8054600181600116156101000203166002900480601f0160208091040260200160405190810160405280929190818152602001828054600181600116156101000203166002900480156112c05780601f10611295576101008083540402835291602001916112c0565b820191906000526020600020905b8154815290600101906020018083116112a357829003601f168201915b5050505050905092915050565b6060600a8054600181600116156101000203166002900480601f0160208091040260200160405190810160405280929190818152602001828054600181600116156101000203166002900480156113655780601f1061133a57610100808354040283529160200191611365565b820191906000526020600020905b81548152906001019060200180831161134857829003601f168201915b5050505050905090565b3373ffffffffffffffffffffffffffffffffffffffff168273ffffffffffffffffffffffffffffffffffffffff161415611411576040517f08c379a00000000000000000000000000000000000000000000000000000000081526004018080602001828103825260198152602001807f4552433732313a20617070726f766520746f2063616c6c65720000000000000081525060200191505060405180910390fd5b80600460003373ffffffffffffffffffffffffffffffffffffffff1673ffffffffffffffffffffffffffffffffffffffff16815260200190815260200160002060008473ffffffffffffffffffffffffffffffffffffffff1673ffffffffffffffffffffffffffffffffffffffff16815260200190815260200160002060006101000a81548160ff0219169083151502179055508173ffffffffffffffffffffffffffffffffffffffff163373ffffffffffffffffffffffffffffffffffffffff167f17307eab39ab6107e8899845ad3d59bd9653f200f220920489ca2b5937696c3183604051808215151515815260200191505060405180910390a35050565b61151d848484610ebd565b6115298484848461199d565b61157e576040517f08c379a000000000000000000000000000000000000000000000000000000000815260040180806020018281038252603281526020018061253a6032913960400191505060405180910390fd5b50505050565b600c818154811061159157fe5b906000526020600020016000915090508054600181600116156101000203166002900480601f0160208091040260200160405190810160405280929190818152602001828054600181600116156101000203166002900480156116355780601f1061160a57610100808354040283529160200191611635565b820191906000526020600020905b81548152906001019060200180831161161857829003601f168201915b505050505081565b606061164882611805565b61169d576040517f08c379a000000000000000000000000000000000000000000000000000000000815260040180806020018281038252602f81526020018061269c602f913960400191505060405180910390fd5b600b60008381526020019081526020016000208054600181600116156101000203166002900480601f0160208091040260200160405190810160405280929190818152602001828054600181600116156101000203166002900480156117445780601f1061171957610100808354040283529160200191611744565b820191906000526020600020905b81548152906001019060200180831161172757829003601f168201915b50505050509050919050565b6000600460008473ffffffffffffffffffffffffffffffffffffffff1673ffffffffffffffffffffffffffffffffffffffff16815260200190815260200160002060008373ffffffffffffffffffffffffffffffffffffffff1673ffffffffffffffffffffffffffffffffffffffff16815260200190815260200160002060009054906101000a900460ff16905092915050565b6117ee8282611b86565b6117f88282611d9e565b61180181611e65565b5050565b6000806001600084815260200190815260200160002060009054906101000a900473ffffffffffffffffffffffffffffffffffffffff169050600073ffffffffffffffffffffffffffffffffffffffff168173ffffffffffffffffffffffffffffffffffffffff161415915050919050565b600061188282611805565b6118d7576040517f08c379a000000000000000000000000000000000000000000000000000000000815260040180806020018281038252602c815260200180612590602c913960400191505060405180910390fd5b60006118e28361108b565b90508073ffffffffffffffffffffffffffffffffffffffff168473ffffffffffffffffffffffffffffffffffffffff16148061195157508373ffffffffffffffffffffffffffffffffffffffff1661193984610c3c565b73ffffffffffffffffffffffffffffffffffffffff16145b8061196257506119618185611750565b5b91505092915050565b611976838383611eb1565b611980838261210c565b61198a8282611d9e565b505050565b600081600001549050919050565b60006119be8473ffffffffffffffffffffffffffffffffffffffff166122aa565b6119cb5760019050611b7e565b60008473ffffffffffffffffffffffffffffffffffffffff1663150b7a02338887876040518563ffffffff1660e01b8152600401808573ffffffffffffffffffffffffffffffffffffffff1673ffffffffffffffffffffffffffffffffffffffff1681526020018473ffffffffffffffffffffffffffffffffffffffff1673ffffffffffffffffffffffffffffffffffffffff16815260200183815260200180602001828103825283818151815260200191508051906020019080838360005b83811015611aa6578082015181840152602081019050611a8b565b50505050905090810190601f168015611ad35780820380516001836020036101000a031916815260200191505b5095505050505050602060405180830381600087803b158015611af557600080fd5b505af1158015611b09573d6000803e3d6000fd5b505050506040513d6020811015611b1f57600080fd5b8101908080519060200190929190505050905063150b7a0260e01b7bffffffffffffffffffffffffffffffffffffffffffffffffffffffff1916817bffffffffffffffffffffffffffffffffffffffffffffffffffffffff1916149150505b949350505050565b600073ffffffffffffffffffffffffffffffffffffffff168273ffffffffffffffffffffffffffffffffffffffff161415611c29576040517f08c379a00000000000000000000000000000000000000000000000000000000081526004018080602001828103825260208152602001807f4552433732313a206d696e7420746f20746865207a65726f206164647265737381525060200191505060405180910390fd5b611c3281611805565b15611ca5576040517f08c379a000000000000000000000000000000000000000000000000000000000815260040180806020018281038252601c8152602001807f4552433732313a20746f6b656e20616c7265616479206d696e7465640000000081525060200191505060405180910390fd5b816001600083815260200190815260200160002060006101000a81548173ffffffffffffffffffffffffffffffffffffffff021916908373ffffffffffffffffffffffffffffffffffffffff160217905550611d3e600360008473ffffffffffffffffffffffffffffffffffffffff1673ffffffffffffffffffffffffffffffffffffffff1681526020019081526020016000206122bd565b808273ffffffffffffffffffffffffffffffffffffffff16600073ffffffffffffffffffffffffffffffffffffffff167fddf252ad1be2c89b69c2b068fc378daa952ba7f163c4a11628f55a4df523b3ef60405160405180910390a45050565b600560008373ffffffffffffffffffffffffffffffffffffffff1673ffffffffffffffffffffffffffffffffffffffff168152602001908152602001600020805490506006600083815260200190815260200160002081905550600560008373ffffffffffffffffffffffffffffffffffffffff1673ffffffffffffffffffffffffffffffffffffffff1681526020019081526020016000208190806001815401808255809150509060018203906000526020600020016000909192909190915055505050565b6007805490506008600083815260200190815260200160002081905550600781908060018154018082558091505090600182039060005260206000200160009091929091909150555050565b8273ffffffffffffffffffffffffffffffffffffffff16611ed18261108b565b73ffffffffffffffffffffffffffffffffffffffff1614611f3d576040517f08c379a00000000000000000000000000000000000000000000000000000000081526004018080602001828103825260298152602001806126736029913960400191505060405180910390fd5b600073ffffffffffffffffffffffffffffffffffffffff168273ffffffffffffffffffffffffffffffffffffffff161415611fc3576040517f08c379a000000000000000000000000000000000000000000000000000000000815260040180806020018281038252602481526020018061256c6024913960400191505060405180910390fd5b611fcc816122d3565b612013600360008573ffffffffffffffffffffffffffffffffffffffff1673ffffffffffffffffffffffffffffffffffffffff168152602001908152602001600020612391565b61205a600360008473ffffffffffffffffffffffffffffffffffffffff1673ffffffffffffffffffffffffffffffffffffffff1681526020019081526020016000206122bd565b816001600083815260200190815260200160002060006101000a81548173ffffffffffffffffffffffffffffffffffffffff021916908373ffffffffffffffffffffffffffffffffffffffff160217905550808273ffffffffffffffffffffffffffffffffffffffff168473ffffffffffffffffffffffffffffffffffffffff167fddf252ad1be2c89b69c2b068fc378daa952ba7f163c4a11628f55a4df523b3ef60405160405180910390a4505050565b60006121646001600560008673ffffffffffffffffffffffffffffffffffffffff1673ffffffffffffffffffffffffffffffffffffffff168152602001908152602001600020805490506123b490919063ffffffff16565b9050600060066000848152602001908152602001600020549050818114612251576000600560008673ffffffffffffffffffffffffffffffffffffffff1673ffffffffffffffffffffffffffffffffffffffff16815260200190815260200160002083815481106121d157fe5b9060005260206000200154905080600560008773ffffffffffffffffffffffffffffffffffffffff1673ffffffffffffffffffffffffffffffffffffffff168152602001908152602001600020838154811061222957fe5b9060005260206000200181905550816006600083815260200190815260200160002081905550505b600560008573ffffffffffffffffffffffffffffffffffffffff1673ffffffffffffffffffffffffffffffffffffffff1681526020019081526020016000208054809190600190036122a391906124bd565b5050505050565b600080823b905060008111915050919050565b6001816000016000828254019250508190555050565b600073ffffffffffffffffffffffffffffffffffffffff166002600083815260200190815260200160002060009054906101000a900473ffffffffffffffffffffffffffffffffffffffff1673ffffffffffffffffffffffffffffffffffffffff161461238e5760006002600083815260200190815260200160002060006101000a81548173ffffffffffffffffffffffffffffffffffffffff021916908373ffffffffffffffffffffffffffffffffffffffff1602179055505b50565b6123a9600182600001546123b490919063ffffffff16565b816000018190555050565b60008282111561242c576040517f08c379a000000000000000000000000000000000000000000000000000000000815260040180806020018281038252601e8152602001807f536166654d6174683a207375627472616374696f6e206f766572666c6f77000081525060200191505060405180910390fd5b600082840390508091505092915050565b828054600181600116156101000203166002900490600052602060002090601f016020900481019282601f1061247e57805160ff19168380011785556124ac565b828001600101855582156124ac579182015b828111156124ab578251825591602001919060010190612490565b5b5090506124b991906124e9565b5090565b8154818355818111156124e4578183600052602060002091820191016124e391906124e9565b5b505050565b61250b91905b808211156125075760008160009055506001016124ef565b5090565b9056fe455243373231456e756d657261626c653a206f776e657220696e646578206f7574206f6620626f756e64734552433732313a207472616e7366657220746f206e6f6e20455243373231526563656976657220696d706c656d656e7465724552433732313a207472616e7366657220746f20746865207a65726f20616464726573734552433732313a206f70657261746f7220717565727920666f72206e6f6e6578697374656e7420746f6b656e4552433732313a20617070726f76652063616c6c6572206973206e6f74206f776e6572206e6f7220617070726f76656420666f7220616c6c4552433732313a2062616c616e636520717565727920666f7220746865207a65726f20616464726573734552433732313a206f776e657220717565727920666f72206e6f6e6578697374656e7420746f6b656e4552433732313a20617070726f76656420717565727920666f72206e6f6e6578697374656e7420746f6b656e4552433732313a207472616e73666572206f6620746f6b656e2074686174206973206e6f74206f776e4552433732314d657461646174613a2055524920717565727920666f72206e6f6e6578697374656e7420746f6b656e4552433732313a20617070726f76616c20746f2063757272656e74206f776e65724552433732313a207472616e736665722063616c6c6572206973206e6f74206f776e6572206e6f7220617070726f766564455243373231456e756d657261626c653a20676c6f62616c20696e646578206f7574206f6620626f756e6473a265627a7a72315820b02b1febb264b623d2f8c460f2f3cbf17f3458ee99e3bd4d236543487e56368d64736f6c634300051000323c73766720786d6c6e733d22687474703a2f2f7777772e77332e6f72672f323030302f737667222076696577426f783d22302030203637382e3835203637382e3835223e3c646566733e3c7374796c653e2e636c732d312c2e636c732d31317b66696c6c3a236666663b7d2e636c732d322c2e636c732d332c2e636c732d397b66696c6c3a236639626233653b7d2e636c732d337b666f6e742d73697a653a333270783b7d2e636c732d31312c2e636c732d31342c2e636c732d332c2e636c732d397b666f6e742d66616d696c793a5562756e74752d426f6c642c205562756e74753b7d2e636c732d31312c2e636c732d31342c2e636c732d31382c2e636c732d332c2e636c732d397b666f6e742d7765696768743a3730303b7d2e636c732d347b6c65747465722d73706163696e673a2d302e3035656d3b7d2e636c732d357b6c65747465722d73706163696e673a2d302e3031656d3b7d2e636c732d367b6c65747465722d73706163696e673a2d302e3032656d3b7d2e636c732d377b6c65747465722d73706163696e673a2d302e3032656d3b7d2e636c732d387b6c65747465722d73706163696e673a2d302e3032656d3b7d2e636c732d31342c2e636c732d397b666f6e742d73697a653a373070783b7d2e636c732d31307b6c65747465722d73706163696e673a2d302e3032656d3b7d2e636c732d31317b666f6e742d73697a653a3133382e363970783b7d2e636c732d31327b6c65747465722d73706163696e673a2d302e3036656d3b7d2e636c732d31337b6c65747465722d73706163696e673a2d302e3032656d3b7d2e636c732d31342c2e636c732d31352c2e636c732d31387b66696c6c3a236466353234313b7d2e636c732d31362c2e636c732d31377b66696c6c3a6e6f6e653b7374726f6b653a236466353234313b7374726f6b652d77696474683a3270783b7d2e636c732d31367b7374726f6b652d6d697465726c696d69743a31303b7d2e636c732d31377b7374726f6b652d6c696e656361703a726f756e643b7374726f6b652d6c696e656a6f696e3a726f756e643b7d2e636c732d31387b666f6e742d73697a653a31312e313970783b666f6e742d66616d696c793a48656c7665746963612d426f6c642c2048656c7665746963613b7d3c2f7374796c653e3c2f646566733e3c672069643d224c617965725f322220646174612d6e616d653d224c617965722032223e3c672069643d224c617965725f312d322220646174612d6e616d653d224c617965722031223e3c636972636c652063783d223333392e3433222063793d223333392e34332220723d223333392e3433222f3e3c7061746820636c6173733d22636c732d312220643d224d3131302e31312c3330362e32336132342e38362c32342e38362c302c302c302d32302e35332d392e3934632d31332e36332c302d32352e30392c31302e312d32352e30392c32342e37372c302c31342e32372c31302e392c32342e36392c32352e34312c32342e36392c382c302c31342e38332d332e32392c32302e32312d392e35346c342e35372c332e3435433130382e37342c3334372e31312c3130302c3335312c38392e352c333531632d31392e32342c302d33312d31332e35352d33312d33302e34367331332e31342d32392e39312c33312d32392e39316331302e35382c302c31392e34382c342e31372c32352e31382c31322e31315a222f3e3c7061746820636c6173733d22636c732d312220643d224d3138372e30362c3332302e396133302e33342c33302e33342c302c302c312d36302e36382e323463302d31372e31362c31332e332d33302e34372c32392e392d33302e3437433137332e37362c3239302e36372c3138372e30362c3330332e37342c3138372e30362c3332302e395a6d2d35342e36372e32346132342e30372c32342e30372c302c302c302c32342e32312c32342e33376331332e34372c302c32342e34352d31302e32362c32342e34352d32342e36396132342e33332c32342e33332c302c312c302d34382e36362e33325a222f3e3c7061746820636c6173733d22636c732d312220643d224d3139362e38342c3239322e313268362e32356c31392e30382c34342e34392c31392e34312d34342e343968362e32356c2d32352c35372e3536682d312e32395a222f3e3c7061746820636c6173733d22636c732d312220643d224d3235392e32392c3239322e313268352e37377635372e3536682d352e37375a222f3e3c7061746820636c6173733d22636c732d312220643d224d3238302e38352c3239322e31324832393563362e33342c302c31322e31392e33322c31372e38382c322e36342c31302e33342c342e31372c31362e35322c31342e31312c31362e35322c32362e37382c302c31362e34332d392e39342c32382e31342d32382e34362c32382e3134483238302e38355a6d31342e32372c35312e39356331302e39312c302c31382e31322d312c32332e32352d372e32326132332e35342c32332e35342c302c302c302c352e30352d31352e32332c32342e34392c32342e34392c302c302c302d342e38312d31352e3233632d352e34352d372e31342d31332e36322d382e36362d32362e31332d382e3636682d352e38357634362e33345a222f3e3c7061746820636c6173733d22636c732d312220643d224d3333382e37332c3332352e3633483336302e3376342e3831483333382e37335a222f3e3c7061746820636c6173733d22636c732d312220643d224d3337362e38312c3239372e37336c332e34352d352e36316831312e33387635372e3536682d352e3737563239372e37335a222f3e3c7061746820636c6173733d22636c732d312220643d224d3432372e38382c3335312e31326c2d342e37332d332e30352c31352e35352d32332e35366131392e37342c31392e37342c302c302c312d352e39332c31632d392e35342c302d31362e32382d372e37382d31362e32382d31372e31362c302d31302e36362c382e33342d31372e37322c31372e38382d31372e37326131372e32352c31372e32352c302c302c312c31372e34382c31372e3463302c352e35332d322e34312c31302e392d362e352c31375a6d31382e33352d34322e37336131322e30372c31322e30372c302c312c302d31322e312c31322e31314131322e30392c31322e30392c302c302c302c3434362e32332c3330382e33395a222f3e3c7061746820636c6173733d22636c732d312220643d224d35342e30372c3333302e34762d34483435392e353476345a222f3e3c7061746820636c6173733d22636c732d322220643d224d3534382e36382c3332382e33356136372e31352c36372e31352c302c312c312c34302e31332d3132314c3537372e31382c3232336134372e37372c34372e37372c302c312c302c31392e31392c33382e32356831392e34346136372e30392c36372e30392c302c302c312d36372e31332c36372e31335a222f3e3c706f6c79676f6e20636c6173733d22636c732d322220706f696e74733d223537342e3036203237382e3235203533362e3734203234342e3539203534392e3737203233302e3136203537322e3738203235302e3931203631382e3838203230302e3737203633332e32203231332e3932203537342e3036203237382e3235222f3e3c7265637420636c6173733d22636c732d312220783d223530322e35352220793d223331382e3631222077696474683d2231332e3622206865696768743d2233302e303422207472616e73666f726d3d227472616e736c617465283137342e3934203834322e34382920726f74617465282d38392e393129222f3e3c7061746820636c6173733d22636c732d312220643d224d3531342e33352c3231362e383663302d312e37312d322e31322d332e39312d322e34332d342e3373302d382e33392c302d382e3339682d352e3039732e32392c382c302c382e33382d322e34332c322e35392d322e34332c342e332d312e35312c31332e30362d312e35312c31332e30366831322e3933533531342e33342c3231382e35372c3531342e33352c3231362e38365a222f3e3c6c696e6520636c6173733d22636c732d31222078313d223438312e3639222079313d223332372e3532222078323d22353337222079323d223332372e36222f3e3c7265637420636c6173733d22636c732d312220783d223530372e32352220793d223239392e39222077696474683d22342e313922206865696768743d2235352e333222207472616e73666f726d3d227472616e736c617465283138312e3032203833362e34312920726f74617465282d38392e393129222f3e3c6c696e6520636c6173733d22636c732d31222078313d223530392e3334222079313d223230342e3731222078323d223530392e34222079323d223136332e3232222f3e3c7061746820636c6173733d22636c732d312220643d224d3530382e382c3230342e37316131302e31342c31302e31342c302c302c312d2e33372d322e3663302d2e38362c302d312e37332c302d322e35396c302d352e31392e30362d31302e33372e31332d31302e33372e312d352e313863302d312e37332e30362d332e34362e31312d352e31392c302d2e31392e32352d2e33352e35352d2e3334732e35332e31352e35342e333463302c312e37332e30372c332e34362e312c352e31396c2e30382c352e31382e30392c31302e33382c302c31302e333776352e313863302c2e38372c302c312e37332c302c322e366131302e35382c31302e35382c302c302c312d2e33372c322e35392e35392e35392c302c302c312d2e36352e3238412e35312e35312c302c302c312c3530382e382c3230342e37315a222f3e3c7265637420636c6173733d22636c732d312220783d223530362e392220793d223232362e3631222077696474683d22342e383822206865696768743d22382e333322207472616e73666f726d3d227472616e736c617465283237372e3831203733392e37372920726f74617465282d38392e393129222f3e3c7061746820636c6173733d22636c732d312220643d224d3532372e31312c3332382e39326c2d33352e36362d2e30362e31342d39312e332c31322e37332d342e37376831302e33326c31322e362c342e38315a6d2d33312e35322d342e31392c32372e33382c302c2e31332d38342e33312d392e32332d332e3532682d382e38316c2d392e33342c332e355a222f3e3c7265637420636c6173733d22636c732d312220783d223439382e32382220793d223235362e3934222077696474683d22342e313422206865696768743d2231332e353122207472616e73666f726d3d227472616e736c617465283233352e3731203736332e35342920726f74617465282d38392e383929222f3e3c7265637420636c6173733d22636c732d312220783d223439382e36372220793d223237372e3638222077696474683d22342e313422206865696768743d2231332e353122207472616e73666f726d3d227472616e736c617465283231352e3335203738342e36342920726f74617465282d38392e383929222f3e3c7265637420636c6173733d22636c732d312220783d223530312e34352220793d223236342e3132222077696474683d22342e313422206865696768743d2231392e383922207472616e73666f726d3d227472616e736c617465283232382e35203737372e30372920726f74617465282d38392e383929222f3e3c7465787420636c6173733d22636c732d3322207472616e73666f726d3d227472616e736c6174652839362e3739203135312e313629223e3c747370616e20636c6173733d22636c732d34223e563c2f747370616e3e3c747370616e20783d2232312e33342220793d2230223e656e3c2f747370616e3e3c747370616e20636c6173733d22636c732d352220783d2235382e38382220793d2230223e6b3c2f747370616e3e3c747370616e20783d2237372e30392220793d2230223e613c2f747370616e3e3c747370616e20636c6173733d22636c732d362220783d2239342e37382220793d2230223e743c2f747370616e3e3c747370616e20783d223130382e33352220793d2230223e61204e613c2f747370616e3e3c747370616e20636c6173733d22636c732d352220783d223137352e36312220793d2230223e723c2f747370616e3e3c747370616e20783d223138382e382220793d2230223e6173696d6861203c2f747370616e3e3c747370616e20636c6173733d22636c732d372220783d223330332e30372220793d2230223e523c2f747370616e3e3c747370616e20783d223332332e36312220793d2230223e616a3c2f747370616e3e3c747370616e20636c6173733d22636c732d382220783d223335302e35362220793d2230223e753c2f747370616e3e3c747370616e20636c6173733d22636c732d352220783d223336382e38392220793d2230223e763c2f747370616e3e3c747370616e20783d223338362e31372220793d2230223e6172697065743c2f747370616e3e3c2f746578743e3c7465787420636c6173733d22636c732d3922207472616e73666f726d3d227472616e736c6174652837382e3531203234392e313529223e473c747370616e20636c6173733d22636c732d31302220783d2234392e31342220793d2230223e4f3c2f747370616e3e3c747370616e20783d223130322e38332220793d2230223e542054484549523c2f747370616e3e3c2f746578743e3c7465787420636c6173733d22636c732d313122207472616e73666f726d3d227472616e736c6174652834312e31203439332e333429223e3c747370616e20636c6173733d22636c732d3132223e563c2f747370616e3e3c747370616e20636c6173733d22636c732d31332220783d2239312e31322220793d2230223e41433c2f747370616e3e3c747370616e20783d223237342e30362220793d2230223e43494e453c2f747370616e3e3c2f746578743e3c7465787420636c6173733d22636c732d313422207472616e73666f726d3d227472616e736c617465283239352e30382038382e3629223e23313c2f746578743e3c636972636c6520636c6173733d22636c732d3135222063783d223230302e3036222063793d223536352e30322220723d2232392e32222f3e3c636972636c6520636c6173733d22636c732d31222063783d223231302e37222063793d223534362e37362220723d22342e3736222f3e3c636972636c6520636c6173733d22636c732d31222063783d223138312e3532222063793d223537362e36332220723d22342e3736222f3e3c636972636c6520636c6173733d22636c732d31222063783d223139302e3233222063793d223534382e35312220723d22322e3936222f3e3c636972636c6520636c6173733d22636c732d31222063783d223232312e3636222063793d223536382e32352220723d22322e3936222f3e3c636972636c6520636c6173733d22636c732d31222063783d223139362e3835222063793d223537352e35392220723d22332e3734222f3e3c636972636c6520636c6173733d22636c732d31222063783d223230302e3337222063793d223535392e37322220723d22332e3937222f3e3c636972636c6520636c6173733d22636c732d31222063783d223230392e3736222063793d223537352e39362220723d22322e3139222f3e3c636972636c6520636c6173733d22636c732d31222063783d223137392e3335222063793d223535362e36362220723d22322e3139222f3e3c636972636c6520636c6173733d22636c732d31222063783d223231312e3636222063793d223538342e39312220723d22312e3933222f3e3c636972636c6520636c6173733d22636c732d31222063783d223139362e3831222063793d223538362e362220723d22312e3933222f3e3c7061746820636c6173733d22636c732d31352220643d224d3230312e36312c3532362e34336c2e35312d2e353161332e33392c332e33392c302c302c302c312e32392d322e35382c332e33352c332e33352c302c302c302d362e36392c302c332e33312c332e33312c302c302c302c2e36382c326c312e31322c312e30366131302e37332c31302e37332c302c302c312c2e35312c342e38392c32332e36342c32332e36342c302c302c312d312e34362c342e36316c332e32362c312e35372c312e36342d312e3538533139382e36312c3533312e32352c3230312e36312c3532362e34335a222f3e3c7061746820636c6173733d22636c732d31352220643d224d3138322e32362c3533316c2e322d2e3761332e33322c332e33322c302c312c302d362c2e34312c332e33312c332e33312c302c302c302c312e35392c312e34326c312e34392e33396131302e36312c31302e36312c302c302c312c322e38352c342c32342e35322c32342e35322c302c302c312c312c342e37336c332e36312d2e32332e36362d322e3138533138322c3533362e372c3138322e32362c3533315a222f3e3c7061746820636c6173733d22636c732d31352220643d224d3232302e32332c3533322e37376c2e36392d2e323261332e33382c332e33382c302c302c302c322e33312d312e37332c332e33352c332e33352c302c312c302d362e32372d2e38386c2e35312c312e34356131302e36372c31302e36372c302c302c312d312e37332c342e362c32342e34312c32342e34312c302c302c312d332e33372c332e34366c322e32312c322e38362c322e31372d2e3637533231352e342c3533352e37332c3232302e32332c3533322e37375a222f3e3c7061746820636c6173733d22636c732d31352220643d224d3233342c3534372e366c2e36392e323361332e33312c332e33312c302c312c302d312e36352d342e34366c2d2e34342c312e34386131302e37352c31302e37352c302c302c312d342e31332c322e36372c32342e34342c32342e34342c302c302c312d342e37372e37386c2e30382c332e36322c322e31352e3735533232382e33312c3534372e31312c3233342c3534372e365a222f3e3c7061746820636c6173733d22636c732d31352220643d224d3233382e34332c3536362e35326c2e35332e3561332e33322c332e33322c302c312c302c322e34352d352e34362c332e33382c332e33382c302c302c302d322c2e37336c2d312c312e31346131302e37332c31302e37332c302c302c312d342e38372e36322c32342e31382c32342e31382c302c302c312d342e36342d312e33366c2d312e352c332e332c312e36312c312e36533233332e35352c3536332e36332c3233382e34332c3536362e35325a222f3e3c7061746820636c6173733d22636c732d31352220643d224d3233322e30362c3538352e31396c2e32332e363961332e33392c332e33392c302c302c302c312e37332c322e332c332e33342c332e33342c302c312c302c332d362c332e32392c332e32392c302c302c302d322e31322d2e32396c2d312e34352e35326131302e37322c31302e37322c302c302c312d342e362d312e37322c32342e31322c32342e31322c302c302c312d332e34372d332e33376c2d322e38362c322e32322e36382c322e3137533232392e30392c3538302e33362c3233322e30362c3538352e31395a222f3e3c7061746820636c6173733d22636c732d31352220643d224d3231372e37382c3539382e36386c2d2e31352e373161332e33312c332e33312c302c312c302c342e32352d322e316c2d312e35312d2e32396131302e37332c31302e37332c302c302c312d332e30392d332e38322c32342e33342c32342e33342c302c302c312d312e32382d342e36366c2d332e35392e34362d2e35322c322e3231533231372e36372c3539332c3231372e37382c3539382e36385a222f3e3c7061746820636c6173733d22636c732d31352220643d224d3139382e32362c3630332e316c2d2e35312e353261332e33322c332e33322c302c312c302c352e342c322e35372c332e33312c332e33312c302c302c302d2e36392d326c2d312e31312d312e30376131302e38332c31302e38332c302c302c312d2e35322d342e38392c32342e322c32342e322c302c302c312c312e34362d342e364c3139392c3539326c2d312e36332c312e3537533230312e32362c3539382e32392c3139382e32362c3630332e315a222f3e3c7061746820636c6173733d22636c732d31352220643d224d3137392e33352c3539372e32326c2d2e372e323261332e33392c332e33392c302c302c302d322e33342c312e36372c332e33352c332e33352c302c302c302c352e39322c332e31332c332e342c332e342c302c302c302c2e33342d322e31316c2d2e34392d312e34366131302e38332c31302e38332c302c302c312c312e38332d342e35372c32342e332c32342e332c302c302c312c332e34342d332e33396c2d322e31352d322e39312d322e31382e3633533138342e32352c3539342e33372c3137392e33352c3539372e32325a222f3e3c7061746820636c6173733d22636c732d31352220643d224d3136352e392c3538322e35316c2d2e36392d2e323161332e33382c332e33382c302c302c302d322e38382e30382c332e33352c332e33352c302c302c302c332e31362c352e392c332e33382c332e33382c302c302c302c312e34362d312e35366c2e34312d312e34396131302e37312c31302e37312c302c302c312c342e30372d322e37362c32342e34352c32342e34352c302c302c312c342e37352d2e38394c3137362c3537386c2d322e31362d2e37533137312e35362c3538322e38382c3136352e392c3538322e35315a222f3e3c7061746820636c6173733d22636c732d31352220643d224d3136312e37332c3536322e37316c2d2e35322d2e353261332e33382c332e33382c302c302c302d322e35372d312e32382c332e33352c332e33352c302c312c302c322c366c312e30372d312e31316131302e36392c31302e36392c302c302c312c342e38392d2e35322c32342e322c32342e322c302c302c312c342e362c312e34366c312e35372d332e32362d312e35372d312e3633533136362e35342c3536352e372c3136312e37332c3536322e37315a222f3e3c7061746820636c6173733d22636c732d31352220643d224d3136382e312c3534342e35386c2d2e32322d2e3761332e332c332e332c302c312c302d322e36362c332e39346c312e34362d2e356131302e37382c31302e37382c302c302c312c342e35372c312e37392c32342e31352c32342e31352c302c302c312c332e34322c332e34336c322e38392d322e31372d2e36342d322e3138533137312c3534392e34362c3136382e312c3534342e35385a222f3e3c7061746820636c6173733d22636c732d31352220643d224d3137342e34312c3538382e3639682d2e343961322e32332c322e32332c302c312c302c322c322e3533762d3161372e32332c372e32332c302c302c312c322e31312d322e35342c31362c31362c302c302c312c322e39312d312e34376c2d2e37372d322e33312d312e35332d2e3035533137382e31352c3538372e38372c3137342e34312c3538382e36395a222f3e3c7061746820636c6173733d22636c732d31352220643d224d3136372e38362c3535352e32356c2d2e332d2e333861322e332c322e332c302c302c302d312e36342d312c322e32362c322e32362c302c302c302d2e34362c342e34392c322e32332c322e32332c302c302c302c312e342d2e33326c2e37392d2e363861372e34372c372e34372c302c302c312c332e33322c302c31362e32322c31362e32322c302c302c312c332c312e336c312e32382d322e30382d2e39342d312e32533137302e38392c3535372e35392c3136372e38362c3535352e32355a222f3e3c7061746820636c6173733d22636c732d31352220643d224d3230392e39322c3533316c2e34322d2e323761322e32372c322e32372c302c312c302d332e32352d322e34392c322e32342c322e32342c302c302c302c2e31372c312e34356c2e35392e383761372e32352c372e32352c302c302c312d2e33352c332e33342c31372c31372c302c302c312d312e36342c322e38376c312e39352c312e35322c312e33322d2e3832533230372e32322c3533332e38312c3230392e39322c3533315a222f3e3c7061746820636c6173733d22636c732d31352220643d224d3233322e34372c3535372e36386c2e34332e323661322e32372c322e32372c302c312c302d2e34332d332e32326c2d2e35322e393261372e33322c372e33322c302c302c312d332e31352c312e31362c31362e37352c31362e37352c302c302c312d332e332d2e31394c3232352c3535396c312e33322e3831533232382e37382c3535362e35312c3233322e34372c3535372e36385a222f3e3c7061746820636c6173733d22636c732d31352220643d224d3233322c3537342e39336c2e32352e343361322e33342c322e33342c302c302c302c312e34392c312e32392c322e32392c322e32392c302c312c302d2e33322d342e33326c2d2e38392e353661372e35382c372e35382c302c302c312d332e33332d2e34392c31362e35392c31362e35392c302c302c312d322e382d312e37356c2d312e362c312e38392e37372c312e3335533232392e32372c3537322e31332c3233322c3537342e39335a222f3e3c7265637420783d223134352e30332220793d223536322e3733222077696474683d223130332e363722206865696768743d22392e393222207472616e73666f726d3d227472616e736c617465282d3332352e3536203237302e38382920726f74617465282d34312e323729222f3e3c636972636c6520636c6173733d22636c732d3135222063783d223437372e3035222063793d223536352e30322220723d2232392e32222f3e3c636972636c6520636c6173733d22636c732d31222063783d223438372e3638222063793d223534362e37362220723d22342e3736222f3e3c636972636c6520636c6173733d22636c732d31222063783d223435382e35222063793d223537362e36332220723d22342e3736222f3e3c636972636c6520636c6173733d22636c732d31222063783d223436372e3231222063793d223534382e35312220723d22322e3936222f3e3c636972636c6520636c6173733d22636c732d31222063783d223439382e3634222063793d223536382e32352220723d22322e3936222f3e3c636972636c6520636c6173733d22636c732d31222063783d223437332e3833222063793d223537352e35392220723d22332e3734222f3e3c636972636c6520636c6173733d22636c732d31222063783d223437372e3335222063793d223535392e37322220723d22332e3937222f3e3c636972636c6520636c6173733d22636c732d31222063783d223438362e3734222063793d223537352e39362220723d22322e3139222f3e3c636972636c6520636c6173733d22636c732d31222063783d223435362e3334222063793d223535362e36362220723d22322e3139222f3e3c636972636c6520636c6173733d22636c732d31222063783d223438382e3634222063793d223538342e39312220723d22312e3933222f3e3c636972636c6520636c6173733d22636c732d31222063783d223437332e38222063793d223538362e362220723d22312e3933222f3e3c7061746820636c6173733d22636c732d31352220643d224d3437382e35392c3532362e34336c2e35322d2e353161332e33382c332e33382c302c302c302c312e32382d322e35382c332e33352c332e33352c302c312c302d362c326c312e31312c312e30366131302e37312c31302e37312c302c302c312c2e35322c342e38392c32342e33392c32342e33392c302c302c312d312e34362c342e36316c332e32362c312e35372c312e36342d312e3538533437352e362c3533312e32352c3437382e35392c3532362e34335a222f3e3c7061746820636c6173733d22636c732d31352220643d224d3435392e32352c3533316c2e322d2e3761332e33392c332e33392c302c302c302d2e31342d322e38372c332e33352c332e33352c302c312c302d342e32352c342e376c312e352e33396131302e37322c31302e37322c302c302c312c322e38342c342c32332e37322c32332e37322c302c302c312c312c342e37336c332e36322d2e32332e36352d322e3138533435392c3533362e372c3435392e32352c3533315a222f3e3c7061746820636c6173733d22636c732d31352220643d224d3439372e32322c3533322e37376c2e36392d2e323261332e33332c332e33332c302c312c302d332e36372d342e37332c332e32392c332e32392c302c302c302d2e332c322e31326c2e35322c312e34356131312c31312c302c302c312d312e37332c342e362c32342e32372c32342e32372c302c302c312d332e33382c332e34366c322e32312c322e38362c322e31372d2e3637533439322e33382c3533352e37332c3439372e32322c3533322e37375a222f3e3c7061746820636c6173733d22636c732d31352220643d224d3531302e39342c3534372e366c2e36392e323361332e33322c332e33322c302c312c302d312e36342d342e34366c2d2e34352c312e34386131302e37382c31302e37382c302c302c312d342e31322c322e36372c32342e34342c32342e34342c302c302c312d342e37372e37386c2e30382c332e36322c322e31342e3735533530352e32392c3534372e31312c3531302e39342c3534372e365a222f3e3c7061746820636c6173733d22636c732d31352220643d224d3531352e34322c3536362e35326c2e35322e3561332e33312c332e33312c302c312c302c2e34352d342e37336c2d312c312e31346131302e37362c31302e37362c302c302c312d342e38382e36322c32342e34332c32342e34332c302c302c312d342e36342d312e33366c2d312e34392c332e332c312e36312c312e36533531302e35342c3536332e36332c3531352e34322c3536362e35325a222f3e3c7061746820636c6173733d22636c732d31352220643d224d3530392e30352c3538352e31396c2e32332e363941332e33322c332e33322c302c312c302c3531342c3538322e3261332e32362c332e32362c302c302c302d322e31312d2e32396c2d312e34352e35326131302e37392c31302e37392c302c302c312d342e36312d312e37322c32342e31322c32342e31322c302c302c312d332e34372d332e33376c2d322e38362c322e32322e36382c322e3137533530362e30382c3538302e33362c3530392e30352c3538352e31395a222f3e3c7061746820636c6173733d22636c732d31352220643d224d3439342e37362c3539382e36386c2d2e31352e373161332e33312c332e33312c302c302c302c342e39352c332e38352c332e33342c332e33342c302c302c302d2e36392d366c2d312e35322d2e32396131302e38342c31302e38342c302c302c312d332e30392d332e38322c32342e33342c32342e33342c302c302c312d312e32382d342e36366c2d332e35382e34362d2e35322c322e3231533439342e36362c3539332c3439342e37362c3539382e36385a222f3e3c7061746820636c6173733d22636c732d31352220643d224d3437352e32352c3630332e316c2d2e35322e353261332e33382c332e33382c302c302c302d312e32382c322e35372c332e33342c332e33342c302c312c302c362d326c2d312e31322d312e30376131302e38362c31302e38362c302c302c312d2e35312d342e38392c32342e322c32342e322c302c302c312c312e34362d342e364c3437362c3539326c2d312e36342c312e3537533437382e32342c3539382e32392c3437352e32352c3630332e315a222f3e3c7061746820636c6173733d22636c732d31352220643d224d3435362e33332c3539372e32326c2d2e36392e323261332e332c332e332c302c302c302d2e39352c362e31392c332e33342c332e33342c302c302c302c342e35322d312e33392c332e32372c332e32372c302c302c302c2e33342d322e31316c2d2e34392d312e34366131302e38332c31302e38332c302c302c312c312e38332d342e35372c32342e31362c32342e31362c302c302c312c332e34352d332e33396c2d322e31362d322e39312d322e31382e3633533436312e32332c3539342e33372c3435362e33332c3539372e32325a222f3e3c7061746820636c6173733d22636c732d31352220643d224d3434322e38392c3538322e35316c2d2e372d2e323161332e33312c332e33312c302c312c302c312e37342c342e34326c2e34322d312e34396131302e36352c31302e36352c302c302c312c342e30362d322e37362c32342e34352c32342e34352c302c302c312c342e37352d2e38394c3435332c3537386c2d322e31362d2e37533434382e35352c3538322e38382c3434322e38392c3538322e35315a222f3e3c7061746820636c6173733d22636c732d31352220643d224d3433382e37312c3536322e37316c2d2e35312d2e353261332e33382c332e33382c302c302c302d322e35382d312e32382c332e33352c332e33352c302c312c302c322c366c312e30362d312e31316131302e37312c31302e37312c302c302c312c342e38392d2e35322c32342e33392c32342e33392c302c302c312c342e36312c312e34366c312e35372d332e32362d312e35382d312e3633533434332e35332c3536352e372c3433382e37312c3536322e37315a222f3e3c7061746820636c6173733d22636c732d31352220643d224d3434352e30392c3534342e35386c2d2e32322d2e3761332e33372c332e33372c302c302c302d312e36392d322e33322c332e33342c332e33342c302c302c302d332e30392c352e39332c332e33372c332e33372c302c302c302c322e31322e33336c312e34352d2e356131302e38312c31302e38312c302c302c312c342e35382c312e37392c32332e38372c32332e38372c302c302c312c332e34312c332e34336c322e392d322e31372d2e36342d322e3138533434382c3534392e34362c3434352e30392c3534342e35385a222f3e3c7061746820636c6173733d22636c732d31352220643d224d3435312e342c3538382e3639682d2e343961322e32342c322e32342c302c312c302c312e39352c322e3533762d3161372e32382c372e32382c302c302c312c322e31322d322e35342c31362c31362c302c302c312c322e39312d312e34376c2d2e37382d322e33312d312e35332d2e3035533435352e31332c3538372e38372c3435312e342c3538382e36395a222f3e3c7061746820636c6173733d22636c732d31352220643d224d3434342e38352c3535352e32356c2d2e33312d2e333861322e32332c322e32332c302c312c302d2e36392c332e31336c2e37392d2e363861372e34322c372e34322c302c302c312c332e33312c302c31362e34342c31362e34342c302c302c312c332c312e336c312e32372d322e30382d2e39342d312e32533434372e38372c3535372e35392c3434342e38352c3535352e32355a222f3e3c7061746820636c6173733d22636c732d31352220643d224d3438362e392c3533316c2e34322d2e323761322e32372c322e32372c302c312c302d332e32342d322e34392c322e32342c322e32342c302c302c302c2e31372c312e34356c2e35392e383761372e34332c372e34332c302c302c312d2e33362c332e33342c31362e32362c31362e32362c302c302c312d312e36342c322e38376c322c312e35322c312e33322d2e3832533438342e32312c3533332e38312c3438362e392c3533315a222f3e3c7061746820636c6173733d22636c732d31352220643d224d3530392e34362c3535372e36386c2e34332e323661322e32372c322e32372c302c312c302c2e37392d342c322e33352c322e33352c302c302c302d312e32332e386c2d2e35312e393261372e34332c372e34332c302c302c312d332e31352c312e31362c31362e37352c31362e37352c302c302c312d332e332d2e31394c3530322c3535396c312e33322e3831533530352e37362c3535362e35312c3530392e34362c3535372e36385a222f3e3c7061746820636c6173733d22636c732d31352220643d224d3530382e39342c3537342e39336c2e32352e343361322e33342c322e33342c302c302c302c312e34382c312e32392c322e32392c322e32392c302c312c302d2e33322d342e33326c2d2e38392e353661372e35392c372e35392c302c302c312d332e33332d2e34392c31372e30362c31372e30362c302c302c312d322e382d312e37356c2d312e35392c312e38392e37362c312e3335533530362e32362c3537322e31332c3530382e39342c3537342e39335a222f3e3c7265637420783d223432322e30312220793d223536322e3733222077696474683d223130332e363722206865696768743d22392e393222207472616e73666f726d3d227472616e736c617465282d3235362e3736203435332e35382920726f74617465282d34312e323729222f3e3c7061746820636c6173733d22636c732d31362220643d224d3333392e34362c3532332e33374136322e34352c36322e34352c302c302c302c3237372c3538352e3835682d2e30376136322e34382c36322e34382c302c302c302c3132352c3068304136322e34362c36322e34362c302c302c302c3333392e34362c3532332e33375a222f3e3c7061746820636c6173733d22636c732d31372220643d224d3337332e38342c3630322e35376133382e32372c33382e32372c302c302c312d36382e30372c312e3532222f3e3c7061746820636c6173733d22636c732d31372220643d224d3330332e38392c3537312e36346133382e33312c33382e33312c302c302c312c37312d2e3237222f3e3c7061746820636c6173733d22636c732d31352220643d224d3332382e33372c3536382e363263302d2e36382d2e30352d312e35312d2e30352d322e33346830632d2e31382e37332d2e34312c312e35342d2e36332c322e32316c2d2e36392c322e3232682d316c2d2e36312d322e3231632d2e31382d2e36362d2e33382d312e34372d2e35312d322e3232683063302c2e37372d2e30362c312e36352d2e312c322e33366c2d2e312c322e3136682d312e31396c2e33362d352e363968312e37326c2e35352c312e39632e31382e36362e33362c312e33372e34382c326830632e31362d2e36352e33352d312e34312e35342d326c2e36312d312e383968312e36386c2e33312c352e3639682d312e32365a222f3e3c7061746820636c6173733d22636c732d31352220643d224d3333322c3536392e33346c2d2e34312c312e3436682d312e33336c312e37342d352e363968312e36396c312e37362c352e3639682d312e33386c2d2e34342d312e34365a6d312e34342d312d2e33352d312e3231632d2e312d2e33342d2e32312d2e37362d2e32392d312e316830632d2e30382e33342d2e31372e37372d2e32362c312e316c2d2e33342c312e32315a222f3e3c7061746820636c6173733d22636c732d31352220643d224d3333362e32312c3536352e31396131312c31312c302c302c312c312e37342d2e31322c332e36322c332e36322c302c302c312c322e33332e36312c322e35322c322e35322c302c302c312c312c322e31342c322e392c322e392c302c302c312d2e39342c322e33312c342e31342c342e31342c302c302c312d322e36332e37332c31312e36392c31312e36392c302c302c312d312e34362d2e30385a6d312e32392c342e363461322c322c302c302c302c2e34352c302c312e37372c312e37372c302c302c302c312e39322d322c312e36322c312e36322c302c302c302d312e37382d312e382c322e34372c322e34372c302c302c302d2e35392e30355a222f3e3c7061746820636c6173733d22636c732d31352220643d224d3334352e34372c3536382e3339682d322e303976312e333668322e33347631682d332e3633762d352e363968332e353176312e3036682d322e323276312e313868322e30395a222f3e3c7061746820636c6173733d22636c732d31352220643d224d3334392e35392c3536352e313176352e3639483334382e33762d352e36395a222f3e3c7061746820636c6173733d22636c732d31352220643d224d3335302e37312c3537302e38762d352e363968312e356c312e31382c322e30396131352e31362c31352e31362c302c302c312c2e39332c312e393568306132302c32302c302c302c312d2e31312d322e3338762d312e363668312e313876352e3639682d312e33356c2d312e32322d322e31396132322e30362c32322e30362c302c302c312d312d32683063302c2e37362e30352c312e35362e30352c322e343976312e37315a222f3e3c7061746820636c6173733d22636c732d31352220643d224d3239392e35352c3537342e33317632342e3737682d352e3632563537342e33315a222f3e3c7061746820636c6173733d22636c732d31352220643d224d3330342e342c3539392e3038563537342e3331483331316c352e31342c392e30386137332e33372c37332e33372c302c302c312c342e30352c382e3439682e31316139312e33382c39312e33382c302c302c312d2e34382d31302e3333762d372e323468352e31347632342e3737483331396c2d352e32392d392e35356139322e32372c39322e32372c302c302c312d342e332d382e37356c2d2e31312c30632e31352c332e32372e32322c362e37362e32322c31302e3876372e34365a222f3e3c7061746820636c6173733d22636c732d31352220643d224d3332392e37362c3537342e36346135302e332c35302e332c302c302c312c372e35382d2e353163342e372c302c372e37352e38342c31302e31342c322e36342c322e35372c312e39322c342e31392c352c342e31392c392e33342c302c342e37342d312e37332c382d342e31322c31302d322e36312c322e31372d362e35372c332e322d31312e34332c332e326134372e34342c34372e34342c302c302c312d362e33362d2e33375a6d352e36332c32302e32326131302e33362c31302e33362c302c302c302c312e39352e313163352e30372c302c382e33382d322e37362c382e33382d382e36382c302d352e31342d332d372e38362d372e382d372e38366131312e36322c31312e36322c302c302c302d322e35332e32325a222f3e3c7061746820636c6173733d22636c732d31352220643d224d3336312c3537342e33317632342e3737682d352e3632563537342e33315a222f3e3c7061746820636c6173733d22636c732d31352220643d224d3337312e35392c3539322e37336c2d312e37362c362e3335483336346c372e35372d32342e373768372e33356c372e36382c32342e3737682d366c2d312e39312d362e33355a6d362e32392d342e31392d312e35352d352e3236632d2e34342d312e34372d2e38382d332e33312d312e32352d342e373848333735632d2e33372c312e34372d2e37342c332e33352d312e31342c342e37386c2d312e34372c352e32365a222f3e3c7061746820636c6173733d22636c732d31352220643d224d3332352c3630362e343273312d322e34382c352e37382d322e333461372e38312c372e38312c302c302c302c322e37322d2e36332c392e30392c392e30392c302c302c312c322e38312d2e323363312e37342e30392c362e37352e31322c382e32332d2e363861322c322c302c302c312c312e39342d312c322e38312c322e38312c302c302c302c312e33372d2e3331632e36392d2e33352c322e322d2e37322c322e37382e32342c302c302c312e31312e32322c312c312e3232612e31362e31362c302c302c302c2e32322e31362c312c312c302c302c302c2e34322d2e33322c352e31322c352e31322c302c302c312d2e31312e3537732e34372e36322e34392e38362e31332e332e31332e336c312c312e3039732e32342e33352c302c2e35342c302c2e34332d2e35332e35352d312e34322c302d312e35372e31382d2e32342e34332c302c2e34332e34372d2e31382e35342d2e30392e33352e32362e32322e34362e31372c312e30392d2e32372c312d2e36322c302d2e36322d2e31382d2e33312d2e33362d2e33312d2e33332e30352e36382d2e33352e38342d2e33352e33342d2e32372e353363302c302d2e34322c302d2e352d2e37312c302c302d2e34312e38312d2e392e38386c2d2e30372d2e3537732d2e33312c312e30372d2e38312c312e33316c2e31332c312e32362e36382c312e313773312e34392e32312e38392c312e32682d312e3732612e32362e32362c302c302c312d2e332d2e322e39342e39342c302c302c302d2e32382d2e36632d2e322d2e31362d2e342d2e30372d2e36392d2e36346131382e332c31382e332c302c302c302d312e35352d322c322e392c322e392c302c302c312d312e31312d2e32342c332e37392c332e37392c302c302c312d2e352d2e35322c372e31312c372e31312c302c302c302d312c312e3333632d2e33332e36352d312e30362c312e33352d2e392c312e373173312c2e36362c312c2e39352d2e35382e35332d312c2e34392d312e39352d2e30372d312e322d2e393463302c302c302c302d2e31362d2e3235612e372e372c302c302c312c302d2e3833632e32332d2e34322e32322d312e32342e34362d312e383761372e312c372e312c302c302c302c2e332d2e38352c352e34392c352e34392c302c302c312d332e362d2e37732d2e37322c302d2e38342c3161332c332c302c302c312d2e32392c312e3036632d2e32332e33372d2e34372e36332d2e32382e393461362e38392c362e38392c302c302c302c312e30382c316c2e37352c3073312e31332e33342e332c316c2d312e382e322d322e35342d322e3138762d312e3231732d2e30382d312d2e33332d312d2e34342e32372d2e36332e3237612e39322e39322c302c302c302d2e39312e3432632d2e32362e34352d312e31352e36392d312e32392e3861322e30392c322e30392c302c302c302d2e35372c312e3137632d2e30382e36322d2e30382e36382d2e30382e363873312e36352d2e32382c312e31392c312e30376c2d2e31392e31312d312e36382e3035732d2e33342d312d2e34342d312e32352d2e33322e31312d2e33322d2e35312c302d312e39312c302d312e39312d2e31342d2e31352e32332d2e32346c2e33382d2e303961352e33392c352e33392c302c302c312c2e33352d312e3336632e32382d2e36312c312e32342d322e33392c312e342d322e363861382e32312c382e32312c302c302c302c2e34312d316c2d332e36382e3036732d322e32342e33322d322e34312c312e393361312e36362c312e36362c302c302c302c312c312e38392c322e35362c322e35362c302c302c312c322e33312c312e3232732d312e38332c312d322e36352d2e3636433332362e33342c3630392e34332c3332342e34392c3630382e38372c3332352c3630362e34325a222f3e3c706f6c79676f6e20636c6173733d22636c732d31352220706f696e74733d223338392e3137203538322e3332203338392e3932203538342e3632203339322e3335203538342e3632203339302e3338203538362e3035203339312e3133203538382e3335203338392e3137203538362e3933203338372e3231203538382e3335203338372e3936203538362e303520333836203538342e3632203338382e3432203538342e3632203338392e3137203538322e3332222f3e3c706f6c79676f6e20636c6173733d22636c732d31352220706f696e74733d223238372e3638203538322e3332203238382e3433203538342e3632203239302e3835203538342e3632203238382e3839203538362e3035203238392e3634203538382e3335203238372e3638203538362e3933203238352e3732203538382e3335203238362e3437203538362e3035203238342e35203538342e3632203238362e3933203538342e3632203238372e3638203538322e3332222f3e3c7465787420636c6173733d22636c732d313822207472616e73666f726d3d227472616e736c617465283239392e3938203632312e34332920726f746174652834342e363829223e433c2f746578743e3c7465787420636c6173733d22636c732d313822207472616e73666f726d3d227472616e736c617465283330362e3431203632372e37312920726f746174652833342e353929223e4f3c2f746578743e3c7465787420636c6173733d22636c732d313822207472616e73666f726d3d227472616e736c617465283331342e3335203633332e30332920726f746174652832342e383729223e563c2f746578743e3c7465787420636c6173733d22636c732d313822207472616e73666f726d3d227472616e736c617465283332312e37203633362e32372920726f746174652831382e343629223e493c2f746578743e3c7465787420636c6173733d22636c732d313822207472616e73666f726d3d227472616e736c617465283332352e3231203633372e35362920726f746174652831312e363329223e4e3c2f746578743e3c7465787420636c6173733d22636c732d313822207472616e73666f726d3d227472616e736c617465283333332e3736203633392e31332920726f7461746528342e373929223e2e3c2f746578743e3c7465787420636c6173733d22636c732d313822207472616e73666f726d3d226d617472697828312c202d302e30342c20302e30342c20312c203333372e34372c203633392e353829223e473c2f746578743e3c7465787420636c6173733d22636c732d313822207472616e73666f726d3d227472616e736c617465283334372e3133203633392e30392920726f74617465282d31322e373829223e4f3c2f746578743e3c7465787420636c6173733d22636c732d313822207472616e73666f726d3d226d617472697828302e39322c202d302e33382c20302e33382c20302e39322c203335362e34312c203633362e383529223e563c2f746578743e3c7465787420636c6173733d22636c732d313822207472616e73666f726d3d227472616e736c617465283336322e3736203633342e31342920726f74617465282d32372e373529223e2e3c2f746578743e3c7465787420636c6173733d22636c732d313822207472616e73666f726d3d227472616e736c617465283336352e3831203633322e35322920726f74617465282d33312e353629223e493c2f746578743e3c7465787420636c6173733d22636c732d313822207472616e73666f726d3d227472616e736c617465283336392e3034203633302e36372920726f74617465282d33382e333629223e4e3c2f746578743e3c2f673e3c2f673e3c2f7376673e",
  "source": "pragma solidity 0.5.16;\n\nimport \"./ERC721Full.sol\";\n\ncontract Color is ERC721Full {\n  string[] public colors;\n  string svg1 = \"<svg xmlns=\\\"http://www.w3.org/2000/svg\\\" viewBox=\\\"0 0 678.85 678.85\\\"><defs><style>.cls-1,.cls-11{fill:#fff;}.cls-2,.cls-3,.cls-9{fill:#f9bb3e;}.cls-3{font-size:32px;}.cls-11,.cls-14,.cls-3,.cls-9{font-family:Ubuntu-Bold, Ubuntu;}.cls-11,.cls-14,.cls-18,.cls-3,.cls-9{font-weight:700;}.cls-4{letter-spacing:-0.05em;}.cls-5{letter-spacing:-0.01em;}.cls-6{letter-spacing:-0.02em;}.cls-7{letter-spacing:-0.02em;}.cls-8{letter-spacing:-0.02em;}.cls-14,.cls-9{font-size:70px;}.cls-10{letter-spacing:-0.02em;}.cls-11{font-size:138.69px;}.cls-12{letter-spacing:-0.06em;}.cls-13{letter-spacing:-0.02em;}.cls-14,.cls-15,.cls-18{fill:#df5241;}.cls-16,.cls-17{fill:none;stroke:#df5241;stroke-width:2px;}.cls-16{stroke-miterlimit:10;}.cls-17{stroke-linecap:round;stroke-linejoin:round;}.cls-18{font-size:11.19px;font-family:Helvetica-Bold, Helvetica;}</style></defs><g id=\\\"Layer_2\\\" data-name=\\\"Layer 2\\\"><g id=\\\"Layer_1-2\\\" data-name=\\\"Layer 1\\\"><circle cx=\\\"339.43\\\" cy=\\\"339.43\\\" r=\\\"339.43\\\"/><path class=\\\"cls-1\\\" d=\\\"M110.11,306.23a24.86,24.86,0,0,0-20.53-9.94c-13.63,0-25.09,10.1-25.09,24.77,0,14.27,10.9,24.69,25.41,24.69,8,0,14.83-3.29,20.21-9.54l4.57,3.45C108.74,347.11,100,351,89.5,351c-19.24,0-31-13.55-31-30.46s13.14-29.91,31-29.91c10.58,0,19.48,4.17,25.18,12.11Z\\\"/><path class=\\\"cls-1\\\" d=\\\"M187.06,320.9a30.34,30.34,0,0,1-60.68.24c0-17.16,13.3-30.47,29.9-30.47C173.76,290.67,187.06,303.74,187.06,320.9Zm-54.67.24a24.07,24.07,0,0,0,24.21,24.37c13.47,0,24.45-10.26,24.45-24.69a24.33,24.33,0,1,0-48.66.32Z\\\"/><path class=\\\"cls-1\\\" d=\\\"M196.84,292.12h6.25l19.08,44.49,19.41-44.49h6.25l-25,57.56h-1.29Z\\\"/><path class=\\\"cls-1\\\" d=\\\"M259.29,292.12h5.77v57.56h-5.77Z\\\"/><path class=\\\"cls-1\\\" d=\\\"M280.85,292.12H295c6.34,0,12.19.32,17.88,2.64,10.34,4.17,16.52,14.11,16.52,26.78,0,16.43-9.94,28.14-28.46,28.14H280.85Zm14.27,51.95c10.91,0,18.12-1,23.25-7.22a23.54,23.54,0,0,0,5.05-15.23,24.49,24.49,0,0,0-4.81-15.23c-5.45-7.14-13.62-8.66-26.13-8.66h-5.85v46.34Z\\\"/><path class=\\\"cls-1\\\" d=\\\"M338.73,325.63H360.3v4.81H338.73Z\\\"/><path class=\\\"cls-1\\\" d=\\\"M376.81,297.73l3.45-5.61h11.38v57.56h-5.77V297.73Z\\\"/><path class=\\\"cls-1\\\" d=\\\"M427.88,351.12l-4.73-3.05,15.55-23.56a19.74,19.74,0,0,1-5.93,1c-9.54,0-16.28-7.78-16.28-17.16,0-10.66,8.34-17.72,17.88-17.72a17.25,17.25,0,0,1,17.48,17.4c0,5.53-2.41,10.9-6.5,17Zm18.35-42.73a12.07,12.07,0,1,0-12.1,12.11A12.09,12.09,0,0,0,446.23,308.39Z\\\"/><path class=\\\"cls-1\\\" d=\\\"M54.07,330.4v-4H459.54v4Z\\\"/><path class=\\\"cls-2\\\" d=\\\"M548.68,328.35a67.15,67.15,0,1,1,40.13-121L577.18,223a47.77,47.77,0,1,0,19.19,38.25h19.44a67.09,67.09,0,0,1-67.13,67.13Z\\\"/><polygon class=\\\"cls-2\\\" points=\\\"574.06 278.25 536.74 244.59 549.77 230.16 572.78 250.91 618.88 200.77 633.2 213.92 574.06 278.25\\\"/><rect class=\\\"cls-1\\\" x=\\\"502.55\\\" y=\\\"318.61\\\" width=\\\"13.6\\\" height=\\\"30.04\\\" transform=\\\"translate(174.94 842.48) rotate(-89.91)\\\"/><path class=\\\"cls-1\\\" d=\\\"M514.35,216.86c0-1.71-2.12-3.91-2.43-4.3s0-8.39,0-8.39h-5.09s.29,8,0,8.38-2.43,2.59-2.43,4.3-1.51,13.06-1.51,13.06h12.93S514.34,218.57,514.35,216.86Z\\\"/><line class=\\\"cls-1\\\" x1=\\\"481.69\\\" y1=\\\"327.52\\\" x2=\\\"537\\\" y2=\\\"327.6\\\"/><rect class=\\\"cls-1\\\" x=\\\"507.25\\\" y=\\\"299.9\\\" width=\\\"4.19\\\" height=\\\"55.32\\\" transform=\\\"translate(181.02 836.41) rotate(-89.91)\\\"/><line class=\\\"cls-1\\\" x1=\\\"509.34\\\" y1=\\\"204.71\\\" x2=\\\"509.4\\\" y2=\\\"163.22\\\"/><path class=\\\"cls-1\\\" d=\\\"M508.8,204.71a10.14,10.14,0,0,1-.37-2.6c0-.86,0-1.73,0-2.59l0-5.19.06-10.37.13-10.37.1-5.18c0-1.73.06-3.46.11-5.19,0-.19.25-.35.55-.34s.53.15.54.34c0,1.73.07,3.46.1,5.19l.08,5.18.09,10.38,0,10.37v5.18c0,.87,0,1.73,0,2.6a10.58,10.58,0,0,1-.37,2.59.59.59,0,0,1-.65.28A.51.51,0,0,1,508.8,204.71Z\\\"/><rect class=\\\"cls-1\\\" x=\\\"506.9\\\" y=\\\"226.61\\\" width=\\\"4.88\\\" height=\\\"8.33\\\" transform=\\\"translate(277.81 739.77) rotate(-89.91)\\\"/><path class=\\\"cls-1\\\" d=\\\"M527.11,328.92l-35.66-.06.14-91.3,12.73-4.77h10.32l12.6,4.81Zm-31.52-4.19,27.38,0,.13-84.31-9.23-3.52h-8.81l-9.34,3.5Z\\\"/><rect class=\\\"cls-1\\\" x=\\\"498.28\\\" y=\\\"256.94\\\" width=\\\"4.14\\\" height=\\\"13.51\\\" transform=\\\"translate(235.71 763.54) rotate(-89.89)\\\"/><rect class=\\\"cls-1\\\" x=\\\"498.67\\\" y=\\\"277.68\\\" width=\\\"4.14\\\" height=\\\"13.51\\\" transform=\\\"translate(215.35 784.64) rotate(-89.89)\\\"/><rect class=\\\"cls-1\\\" x=\\\"501.45\\\" y=\\\"264.12\\\" width=\\\"4.14\\\" height=\\\"19.89\\\" transform=\\\"translate(228.5 777.07) rotate(-89.89)\\\"/><text class=\\\"cls-3\\\" transform=\\\"translate(96.79 151.16)\\\"><tspan class=\\\"cls-4\\\">V</tspan><tspan x=\\\"21.34\\\" y=\\\"0\\\">en</tspan><tspan class=\\\"cls-5\\\" x=\\\"58.88\\\" y=\\\"0\\\">k</tspan><tspan x=\\\"77.09\\\" y=\\\"0\\\">a</tspan><tspan class=\\\"cls-6\\\" x=\\\"94.78\\\" y=\\\"0\\\">t</tspan><tspan x=\\\"108.35\\\" y=\\\"0\\\">a Na</tspan><tspan class=\\\"cls-5\\\" x=\\\"175.61\\\" y=\\\"0\\\">r</tspan><tspan x=\\\"188.8\\\" y=\\\"0\\\">asimha </tspan><tspan class=\\\"cls-7\\\" x=\\\"303.07\\\" y=\\\"0\\\">R</tspan><tspan x=\\\"323.61\\\" y=\\\"0\\\">aj</tspan><tspan class=\\\"cls-8\\\" x=\\\"350.56\\\" y=\\\"0\\\">u</tspan><tspan class=\\\"cls-5\\\" x=\\\"368.89\\\" y=\\\"0\\\">v</tspan><tspan x=\\\"386.17\\\" y=\\\"0\\\">aripet</tspan></text><text class=\\\"cls-9\\\" transform=\\\"translate(78.51 249.15)\\\">G<tspan class=\\\"cls-10\\\" x=\\\"49.14\\\" y=\\\"0\\\">O</tspan><tspan x=\\\"102.83\\\" y=\\\"0\\\">T THEIR</tspan></text><text class=\\\"cls-11\\\" transform=\\\"translate(41.1 493.34)\\\"><tspan class=\\\"cls-12\\\">V</tspan><tspan class=\\\"cls-13\\\" x=\\\"91.12\\\" y=\\\"0\\\">AC</tspan><tspan x=\\\"274.06\\\" y=\\\"0\\\">CINE</tspan></text><text class=\\\"cls-14\\\" transform=\\\"translate(295.08 88.6)\\\">#1</text><circle class=\\\"cls-15\\\" cx=\\\"200.06\\\" cy=\\\"565.02\\\" r=\\\"29.2\\\"/><circle class=\\\"cls-1\\\" cx=\\\"210.7\\\" cy=\\\"546.76\\\" r=\\\"4.76\\\"/><circle class=\\\"cls-1\\\" cx=\\\"181.52\\\" cy=\\\"576.63\\\" r=\\\"4.76\\\"/><circle class=\\\"cls-1\\\" cx=\\\"190.23\\\" cy=\\\"548.51\\\" r=\\\"2.96\\\"/><circle class=\\\"cls-1\\\" cx=\\\"221.66\\\" cy=\\\"568.25\\\" r=\\\"2.96\\\"/><circle class=\\\"cls-1\\\" cx=\\\"196.85\\\" cy=\\\"575.59\\\" r=\\\"3.74\\\"/><circle class=\\\"cls-1\\\" cx=\\\"200.37\\\" cy=\\\"559.72\\\" r=\\\"3.97\\\"/><circle class=\\\"cls-1\\\" cx=\\\"209.76\\\" cy=\\\"575.96\\\" r=\\\"2.19\\\"/><circle class=\\\"cls-1\\\" cx=\\\"179.35\\\" cy=\\\"556.66\\\" r=\\\"2.19\\\"/><circle class=\\\"cls-1\\\" cx=\\\"211.66\\\" cy=\\\"584.91\\\" r=\\\"1.93\\\"/><circle class=\\\"cls-1\\\" cx=\\\"196.81\\\" cy=\\\"586.6\\\" r=\\\"1.93\\\"/><path class=\\\"cls-15\\\" d=\\\"M201.61,526.43l.51-.51a3.39,3.39,0,0,0,1.29-2.58,3.35,3.35,0,0,0-6.69,0,3.31,3.31,0,0,0,.68,2l1.12,1.06a10.73,10.73,0,0,1,.51,4.89,23.64,23.64,0,0,1-1.46,4.61l3.26,1.57,1.64-1.58S198.61,531.25,201.61,526.43Z\\\"/><path class=\\\"cls-15\\\" d=\\\"M182.26,531l.2-.7a3.32,3.32,0,1,0-6,.41,3.31,3.31,0,0,0,1.59,1.42l1.49.39a10.61,10.61,0,0,1,2.85,4,24.52,24.52,0,0,1,1,4.73l3.61-.23.66-2.18S182,536.7,182.26,531Z\\\"/><path class=\\\"cls-15\\\" d=\\\"M220.23,532.77l.69-.22a3.38,3.38,0,0,0,2.31-1.73,3.35,3.35,0,1,0-6.27-.88l.51,1.45a10.67,10.67,0,0,1-1.73,4.6,24.41,24.41,0,0,1-3.37,3.46l2.21,2.86,2.17-.67S215.4,535.73,220.23,532.77Z\\\"/><path class=\\\"cls-15\\\" d=\\\"M234,547.6l.69.23a3.31,3.31,0,1,0-1.65-4.46l-.44,1.48a10.75,10.75,0,0,1-4.13,2.67,24.44,24.44,0,0,1-4.77.78l.08,3.62,2.15.75S228.31,547.11,234,547.6Z\\\"/><path class=\\\"cls-15\\\" d=\\\"M238.43,566.52l.53.5a3.32,3.32,0,1,0,2.45-5.46,3.38,3.38,0,0,0-2,.73l-1,1.14a10.73,10.73,0,0,1-4.87.62,24.18,24.18,0,0,1-4.64-1.36l-1.5,3.3,1.61,1.6S233.55,563.63,238.43,566.52Z\\\"/><path class=\\\"cls-15\\\" d=\\\"M232.06,585.19l.23.69a3.39,3.39,0,0,0,1.73,2.3,3.34,3.34,0,1,0,3-6,3.29,3.29,0,0,0-2.12-.29l-1.45.52a10.72,10.72,0,0,1-4.6-1.72,24.12,24.12,0,0,1-3.47-3.37l-2.86,2.22.68,2.17S229.09,580.36,232.06,585.19Z\\\"/><path class=\\\"cls-15\\\" d=\\\"M217.78,598.68l-.15.71a3.31,3.31,0,1,0,4.25-2.1l-1.51-.29a10.73,10.73,0,0,1-3.09-3.82,24.34,24.34,0,0,1-1.28-4.66l-3.59.46-.52,2.21S217.67,593,217.78,598.68Z\\\"/><path class=\\\"cls-15\\\" d=\\\"M198.26,603.1l-.51.52a3.32,3.32,0,1,0,5.4,2.57,3.31,3.31,0,0,0-.69-2l-1.11-1.07a10.83,10.83,0,0,1-.52-4.89,24.2,24.2,0,0,1,1.46-4.6L199,592l-1.63,1.57S201.26,598.29,198.26,603.1Z\\\"/><path class=\\\"cls-15\\\" d=\\\"M179.35,597.22l-.7.22a3.39,3.39,0,0,0-2.34,1.67,3.35,3.35,0,0,0,5.92,3.13,3.4,3.4,0,0,0,.34-2.11l-.49-1.46a10.83,10.83,0,0,1,1.83-4.57,24.3,24.3,0,0,1,3.44-3.39l-2.15-2.91-2.18.63S184.25,594.37,179.35,597.22Z\\\"/><path class=\\\"cls-15\\\" d=\\\"M165.9,582.51l-.69-.21a3.38,3.38,0,0,0-2.88.08,3.35,3.35,0,0,0,3.16,5.9,3.38,3.38,0,0,0,1.46-1.56l.41-1.49a10.71,10.71,0,0,1,4.07-2.76,24.45,24.45,0,0,1,4.75-.89L176,578l-2.16-.7S171.56,582.88,165.9,582.51Z\\\"/><path class=\\\"cls-15\\\" d=\\\"M161.73,562.71l-.52-.52a3.38,3.38,0,0,0-2.57-1.28,3.35,3.35,0,1,0,2,6l1.07-1.11a10.69,10.69,0,0,1,4.89-.52,24.2,24.2,0,0,1,4.6,1.46l1.57-3.26-1.57-1.63S166.54,565.7,161.73,562.71Z\\\"/><path class=\\\"cls-15\\\" d=\\\"M168.1,544.58l-.22-.7a3.3,3.3,0,1,0-2.66,3.94l1.46-.5a10.78,10.78,0,0,1,4.57,1.79,24.15,24.15,0,0,1,3.42,3.43l2.89-2.17-.64-2.18S171,549.46,168.1,544.58Z\\\"/><path class=\\\"cls-15\\\" d=\\\"M174.41,588.69h-.49a2.23,2.23,0,1,0,2,2.53v-1a7.23,7.23,0,0,1,2.11-2.54,16,16,0,0,1,2.91-1.47l-.77-2.31-1.53-.05S178.15,587.87,174.41,588.69Z\\\"/><path class=\\\"cls-15\\\" d=\\\"M167.86,555.25l-.3-.38a2.3,2.3,0,0,0-1.64-1,2.26,2.26,0,0,0-.46,4.49,2.23,2.23,0,0,0,1.4-.32l.79-.68a7.47,7.47,0,0,1,3.32,0,16.22,16.22,0,0,1,3,1.3l1.28-2.08-.94-1.2S170.89,557.59,167.86,555.25Z\\\"/><path class=\\\"cls-15\\\" d=\\\"M209.92,531l.42-.27a2.27,2.27,0,1,0-3.25-2.49,2.24,2.24,0,0,0,.17,1.45l.59.87a7.25,7.25,0,0,1-.35,3.34,17,17,0,0,1-1.64,2.87l1.95,1.52,1.32-.82S207.22,533.81,209.92,531Z\\\"/><path class=\\\"cls-15\\\" d=\\\"M232.47,557.68l.43.26a2.27,2.27,0,1,0-.43-3.22l-.52.92a7.32,7.32,0,0,1-3.15,1.16,16.75,16.75,0,0,1-3.3-.19L225,559l1.32.81S228.78,556.51,232.47,557.68Z\\\"/><path class=\\\"cls-15\\\" d=\\\"M232,574.93l.25.43a2.34,2.34,0,0,0,1.49,1.29,2.29,2.29,0,1,0-.32-4.32l-.89.56a7.58,7.58,0,0,1-3.33-.49,16.59,16.59,0,0,1-2.8-1.75l-1.6,1.89.77,1.35S229.27,572.13,232,574.93Z\\\"/><rect x=\\\"145.03\\\" y=\\\"562.73\\\" width=\\\"103.67\\\" height=\\\"9.92\\\" transform=\\\"translate(-325.56 270.88) rotate(-41.27)\\\"/><circle class=\\\"cls-15\\\" cx=\\\"477.05\\\" cy=\\\"565.02\\\" r=\\\"29.2\\\"/><circle class=\\\"cls-1\\\" cx=\\\"487.68\\\" cy=\\\"546.76\\\" r=\\\"4.76\\\"/><circle class=\\\"cls-1\\\" cx=\\\"458.5\\\" cy=\\\"576.63\\\" r=\\\"4.76\\\"/><circle class=\\\"cls-1\\\" cx=\\\"467.21\\\" cy=\\\"548.51\\\" r=\\\"2.96\\\"/><circle class=\\\"cls-1\\\" cx=\\\"498.64\\\" cy=\\\"568.25\\\" r=\\\"2.96\\\"/><circle class=\\\"cls-1\\\" cx=\\\"473.83\\\" cy=\\\"575.59\\\" r=\\\"3.74\\\"/><circle class=\\\"cls-1\\\" cx=\\\"477.35\\\" cy=\\\"559.72\\\" r=\\\"3.97\\\"/><circle class=\\\"cls-1\\\" cx=\\\"486.74\\\" cy=\\\"575.96\\\" r=\\\"2.19\\\"/><circle class=\\\"cls-1\\\" cx=\\\"456.34\\\" cy=\\\"556.66\\\" r=\\\"2.19\\\"/><circle class=\\\"cls-1\\\" cx=\\\"488.64\\\" cy=\\\"584.91\\\" r=\\\"1.93\\\"/><circle class=\\\"cls-1\\\" cx=\\\"473.8\\\" cy=\\\"586.6\\\" r=\\\"1.93\\\"/><path class=\\\"cls-15\\\" d=\\\"M478.59,526.43l.52-.51a3.38,3.38,0,0,0,1.28-2.58,3.35,3.35,0,1,0-6,2l1.11,1.06a10.71,10.71,0,0,1,.52,4.89,24.39,24.39,0,0,1-1.46,4.61l3.26,1.57,1.64-1.58S475.6,531.25,478.59,526.43Z\\\"/><path class=\\\"cls-15\\\" d=\\\"M459.25,531l.2-.7a3.39,3.39,0,0,0-.14-2.87,3.35,3.35,0,1,0-4.25,4.7l1.5.39a10.72,10.72,0,0,1,2.84,4,23.72,23.72,0,0,1,1,4.73l3.62-.23.65-2.18S459,536.7,459.25,531Z\\\"/><path class=\\\"cls-15\\\" d=\\\"M497.22,532.77l.69-.22a3.33,3.33,0,1,0-3.67-4.73,3.29,3.29,0,0,0-.3,2.12l.52,1.45a11,11,0,0,1-1.73,4.6,24.27,24.27,0,0,1-3.38,3.46l2.21,2.86,2.17-.67S492.38,535.73,497.22,532.77Z\\\"/><path class=\\\"cls-15\\\" d=\\\"M510.94,547.6l.69.23a3.32,3.32,0,1,0-1.64-4.46l-.45,1.48a10.78,10.78,0,0,1-4.12,2.67,24.44,24.44,0,0,1-4.77.78l.08,3.62,2.14.75S505.29,547.11,510.94,547.6Z\\\"/><path class=\\\"cls-15\\\" d=\\\"M515.42,566.52l.52.5a3.31,3.31,0,1,0,.45-4.73l-1,1.14a10.76,10.76,0,0,1-4.88.62,24.43,24.43,0,0,1-4.64-1.36l-1.49,3.3,1.61,1.6S510.54,563.63,515.42,566.52Z\\\"/><path class=\\\"cls-15\\\" d=\\\"M509.05,585.19l.23.69A3.32,3.32,0,1,0,514,582.2a3.26,3.26,0,0,0-2.11-.29l-1.45.52a10.79,10.79,0,0,1-4.61-1.72,24.12,24.12,0,0,1-3.47-3.37l-2.86,2.22.68,2.17S506.08,580.36,509.05,585.19Z\\\"/><path class=\\\"cls-15\\\" d=\\\"M494.76,598.68l-.15.71a3.31,3.31,0,0,0,4.95,3.85,3.34,3.34,0,0,0-.69-6l-1.52-.29a10.84,10.84,0,0,1-3.09-3.82,24.34,24.34,0,0,1-1.28-4.66l-3.58.46-.52,2.21S494.66,593,494.76,598.68Z\\\"/><path class=\\\"cls-15\\\" d=\\\"M475.25,603.1l-.52.52a3.38,3.38,0,0,0-1.28,2.57,3.34,3.34,0,1,0,6-2l-1.12-1.07a10.86,10.86,0,0,1-.51-4.89,24.2,24.2,0,0,1,1.46-4.6L476,592l-1.64,1.57S478.24,598.29,475.25,603.1Z\\\"/><path class=\\\"cls-15\\\" d=\\\"M456.33,597.22l-.69.22a3.3,3.3,0,0,0-.95,6.19,3.34,3.34,0,0,0,4.52-1.39,3.27,3.27,0,0,0,.34-2.11l-.49-1.46a10.83,10.83,0,0,1,1.83-4.57,24.16,24.16,0,0,1,3.45-3.39l-2.16-2.91-2.18.63S461.23,594.37,456.33,597.22Z\\\"/><path class=\\\"cls-15\\\" d=\\\"M442.89,582.51l-.7-.21a3.31,3.31,0,1,0,1.74,4.42l.42-1.49a10.65,10.65,0,0,1,4.06-2.76,24.45,24.45,0,0,1,4.75-.89L453,578l-2.16-.7S448.55,582.88,442.89,582.51Z\\\"/><path class=\\\"cls-15\\\" d=\\\"M438.71,562.71l-.51-.52a3.38,3.38,0,0,0-2.58-1.28,3.35,3.35,0,1,0,2,6l1.06-1.11a10.71,10.71,0,0,1,4.89-.52,24.39,24.39,0,0,1,4.61,1.46l1.57-3.26-1.58-1.63S443.53,565.7,438.71,562.71Z\\\"/><path class=\\\"cls-15\\\" d=\\\"M445.09,544.58l-.22-.7a3.37,3.37,0,0,0-1.69-2.32,3.34,3.34,0,0,0-3.09,5.93,3.37,3.37,0,0,0,2.12.33l1.45-.5a10.81,10.81,0,0,1,4.58,1.79,23.87,23.87,0,0,1,3.41,3.43l2.9-2.17-.64-2.18S448,549.46,445.09,544.58Z\\\"/><path class=\\\"cls-15\\\" d=\\\"M451.4,588.69h-.49a2.24,2.24,0,1,0,1.95,2.53v-1a7.28,7.28,0,0,1,2.12-2.54,16,16,0,0,1,2.91-1.47l-.78-2.31-1.53-.05S455.13,587.87,451.4,588.69Z\\\"/><path class=\\\"cls-15\\\" d=\\\"M444.85,555.25l-.31-.38a2.23,2.23,0,1,0-.69,3.13l.79-.68a7.42,7.42,0,0,1,3.31,0,16.44,16.44,0,0,1,3,1.3l1.27-2.08-.94-1.2S447.87,557.59,444.85,555.25Z\\\"/><path class=\\\"cls-15\\\" d=\\\"M486.9,531l.42-.27a2.27,2.27,0,1,0-3.24-2.49,2.24,2.24,0,0,0,.17,1.45l.59.87a7.43,7.43,0,0,1-.36,3.34,16.26,16.26,0,0,1-1.64,2.87l2,1.52,1.32-.82S484.21,533.81,486.9,531Z\\\"/><path class=\\\"cls-15\\\" d=\\\"M509.46,557.68l.43.26a2.27,2.27,0,1,0,.79-4,2.35,2.35,0,0,0-1.23.8l-.51.92a7.43,7.43,0,0,1-3.15,1.16,16.75,16.75,0,0,1-3.3-.19L502,559l1.32.81S505.76,556.51,509.46,557.68Z\\\"/><path class=\\\"cls-15\\\" d=\\\"M508.94,574.93l.25.43a2.34,2.34,0,0,0,1.48,1.29,2.29,2.29,0,1,0-.32-4.32l-.89.56a7.59,7.59,0,0,1-3.33-.49,17.06,17.06,0,0,1-2.8-1.75l-1.59,1.89.76,1.35S506.26,572.13,508.94,574.93Z\\\"/><rect x=\\\"422.01\\\" y=\\\"562.73\\\" width=\\\"103.67\\\" height=\\\"9.92\\\" transform=\\\"translate(-256.76 453.58) rotate(-41.27)\\\"/><path class=\\\"cls-16\\\" d=\\\"M339.46,523.37A62.45,62.45,0,0,0,277,585.85h-.07a62.48,62.48,0,0,0,125,0h0A62.46,62.46,0,0,0,339.46,523.37Z\\\"/><path class=\\\"cls-17\\\" d=\\\"M373.84,602.57a38.27,38.27,0,0,1-68.07,1.52\\\"/><path class=\\\"cls-17\\\" d=\\\"M303.89,571.64a38.31,38.31,0,0,1,71-.27\\\"/><path class=\\\"cls-15\\\" d=\\\"M328.37,568.62c0-.68-.05-1.51-.05-2.34h0c-.18.73-.41,1.54-.63,2.21l-.69,2.22h-1l-.61-2.21c-.18-.66-.38-1.47-.51-2.22h0c0,.77-.06,1.65-.1,2.36l-.1,2.16h-1.19l.36-5.69h1.72l.55,1.9c.18.66.36,1.37.48,2h0c.16-.65.35-1.41.54-2l.61-1.89h1.68l.31,5.69h-1.26Z\\\"/><path class=\\\"cls-15\\\" d=\\\"M332,569.34l-.41,1.46h-1.33l1.74-5.69h1.69l1.76,5.69h-1.38l-.44-1.46Zm1.44-1-.35-1.21c-.1-.34-.21-.76-.29-1.1h0c-.08.34-.17.77-.26,1.1l-.34,1.21Z\\\"/><path class=\\\"cls-15\\\" d=\\\"M336.21,565.19a11,11,0,0,1,1.74-.12,3.62,3.62,0,0,1,2.33.61,2.52,2.52,0,0,1,1,2.14,2.9,2.9,0,0,1-.94,2.31,4.14,4.14,0,0,1-2.63.73,11.69,11.69,0,0,1-1.46-.08Zm1.29,4.64a2,2,0,0,0,.45,0,1.77,1.77,0,0,0,1.92-2,1.62,1.62,0,0,0-1.78-1.8,2.47,2.47,0,0,0-.59.05Z\\\"/><path class=\\\"cls-15\\\" d=\\\"M345.47,568.39h-2.09v1.36h2.34v1h-3.63v-5.69h3.51v1.06h-2.22v1.18h2.09Z\\\"/><path class=\\\"cls-15\\\" d=\\\"M349.59,565.11v5.69H348.3v-5.69Z\\\"/><path class=\\\"cls-15\\\" d=\\\"M350.71,570.8v-5.69h1.5l1.18,2.09a15.16,15.16,0,0,1,.93,1.95h0a20,20,0,0,1-.11-2.38v-1.66h1.18v5.69h-1.35l-1.22-2.19a22.06,22.06,0,0,1-1-2h0c0,.76.05,1.56.05,2.49v1.71Z\\\"/><path class=\\\"cls-15\\\" d=\\\"M299.55,574.31v24.77h-5.62V574.31Z\\\"/><path class=\\\"cls-15\\\" d=\\\"M304.4,599.08V574.31H311l5.14,9.08a73.37,73.37,0,0,1,4.05,8.49h.11a91.38,91.38,0,0,1-.48-10.33v-7.24h5.14v24.77H319l-5.29-9.55a92.27,92.27,0,0,1-4.3-8.75l-.11,0c.15,3.27.22,6.76.22,10.8v7.46Z\\\"/><path class=\\\"cls-15\\\" d=\\\"M329.76,574.64a50.3,50.3,0,0,1,7.58-.51c4.7,0,7.75.84,10.14,2.64,2.57,1.92,4.19,5,4.19,9.34,0,4.74-1.73,8-4.12,10-2.61,2.17-6.57,3.2-11.43,3.2a47.44,47.44,0,0,1-6.36-.37Zm5.63,20.22a10.36,10.36,0,0,0,1.95.11c5.07,0,8.38-2.76,8.38-8.68,0-5.14-3-7.86-7.8-7.86a11.62,11.62,0,0,0-2.53.22Z\\\"/><path class=\\\"cls-15\\\" d=\\\"M361,574.31v24.77h-5.62V574.31Z\\\"/><path class=\\\"cls-15\\\" d=\\\"M371.59,592.73l-1.76,6.35H364l7.57-24.77h7.35l7.68,24.77h-6l-1.91-6.35Zm6.29-4.19-1.55-5.26c-.44-1.47-.88-3.31-1.25-4.78H375c-.37,1.47-.74,3.35-1.14,4.78l-1.47,5.26Z\\\"/><path class=\\\"cls-15\\\" d=\\\"M325,606.42s1-2.48,5.78-2.34a7.81,7.81,0,0,0,2.72-.63,9.09,9.09,0,0,1,2.81-.23c1.74.09,6.75.12,8.23-.68a2,2,0,0,1,1.94-1,2.81,2.81,0,0,0,1.37-.31c.69-.35,2.2-.72,2.78.24,0,0,1.11.22,1,1.22a.16.16,0,0,0,.22.16,1,1,0,0,0,.42-.32,5.12,5.12,0,0,1-.11.57s.47.62.49.86.13.3.13.3l1,1.09s.24.35,0,.54,0,.43-.53.55-1.42,0-1.57.18-.24.43,0,.43.47-.18.54-.09.35.26.22.46.17,1.09-.27,1-.62,0-.62-.18-.31-.36-.31-.33.05.68-.35.84-.35.34-.27.53c0,0-.42,0-.5-.71,0,0-.41.81-.9.88l-.07-.57s-.31,1.07-.81,1.31l.13,1.26.68,1.17s1.49.21.89,1.2h-1.72a.26.26,0,0,1-.3-.2.94.94,0,0,0-.28-.6c-.2-.16-.4-.07-.69-.64a18.3,18.3,0,0,0-1.55-2,2.9,2.9,0,0,1-1.11-.24,3.79,3.79,0,0,1-.5-.52,7.11,7.11,0,0,0-1,1.33c-.33.65-1.06,1.35-.9,1.71s1,.66,1,.95-.58.53-1,.49-1.95-.07-1.2-.94c0,0,0,0-.16-.25a.7.7,0,0,1,0-.83c.23-.42.22-1.24.46-1.87a7.1,7.1,0,0,0,.3-.85,5.49,5.49,0,0,1-3.6-.7s-.72,0-.84,1a3,3,0,0,1-.29,1.06c-.23.37-.47.63-.28.94a6.89,6.89,0,0,0,1.08,1l.75,0s1.13.34.3,1l-1.8.2-2.54-2.18v-1.21s-.08-1-.33-1-.44.27-.63.27a.92.92,0,0,0-.91.42c-.26.45-1.15.69-1.29.8a2.09,2.09,0,0,0-.57,1.17c-.08.62-.08.68-.08.68s1.65-.28,1.19,1.07l-.19.11-1.68.05s-.34-1-.44-1.25-.32.11-.32-.51,0-1.91,0-1.91-.14-.15.23-.24l.38-.09a5.39,5.39,0,0,1,.35-1.36c.28-.61,1.24-2.39,1.4-2.68a8.21,8.21,0,0,0,.41-1l-3.68.06s-2.24.32-2.41,1.93a1.66,1.66,0,0,0,1,1.89,2.56,2.56,0,0,1,2.31,1.22s-1.83,1-2.65-.66C326.34,609.43,324.49,608.87,325,606.42Z\\\"/><polygon class=\\\"cls-15\\\" points=\\\"389.17 582.32 389.92 584.62 392.35 584.62 390.38 586.05 391.13 588.35 389.17 586.93 387.21 588.35 387.96 586.05 386 584.62 388.42 584.62 389.17 582.32\\\"/><polygon class=\\\"cls-15\\\" points=\\\"287.68 582.32 288.43 584.62 290.85 584.62 288.89 586.05 289.64 588.35 287.68 586.93 285.72 588.35 286.47 586.05 284.5 584.62 286.93 584.62 287.68 582.32\\\"/><text class=\\\"cls-18\\\" transform=\\\"translate(299.98 621.43) rotate(44.68)\\\">C</text><text class=\\\"cls-18\\\" transform=\\\"translate(306.41 627.71) rotate(34.59)\\\">O</text><text class=\\\"cls-18\\\" transform=\\\"translate(314.35 633.03) rotate(24.87)\\\">V</text><text class=\\\"cls-18\\\" transform=\\\"translate(321.7 636.27) rotate(18.46)\\\">I</text><text class=\\\"cls-18\\\" transform=\\\"translate(325.21 637.56) rotate(11.63)\\\">N</text><text class=\\\"cls-18\\\" transform=\\\"translate(333.76 639.13) rotate(4.79)\\\">.</text><text class=\\\"cls-18\\\" transform=\\\"matrix(1, -0.04, 0.04, 1, 337.47, 639.58)\\\">G</text><text class=\\\"cls-18\\\" transform=\\\"translate(347.13 639.09) rotate(-12.78)\\\">O</text><text class=\\\"cls-18\\\" transform=\\\"matrix(0.92, -0.38, 0.38, 0.92, 356.41, 636.85)\\\">V</text><text class=\\\"cls-18\\\" transform=\\\"translate(362.76 634.14) rotate(-27.75)\\\">.</text><text class=\\\"cls-18\\\" transform=\\\"translate(365.81 632.52) rotate(-31.56)\\\">I</text><text class=\\\"cls-18\\\" transform=\\\"translate(369.04 630.67) rotate(-38.36)\\\">N</text></g></g></svg>\";\n  mapping(string => bool) _colorExists;\n\n  constructor() ERC721Full(\"Color\", \"COLOR\") public {\n  }\n\n  // E.G. color = \"#FFFFFF\"\n  function mint(string memory _color, uint dose) public {\n    string memory newSVG = editSVG(_color, dose);\n    uint _id = colors.push(newSVG);\n    _mint(msg.sender, _id);\n    //_colorExists[_color] = true;\n  }\n\n  function editSVG(string memory _name, uint dose) public returns(string memory){\n    return svg1;\n  }\n\n}\n",
  "sourcePath": "/Users/anuraghakeem/Documents/adtomica/personal/Blockchain/Hackathon/untitled folder/nft/src/contracts/Color.sol",
  "compiler": {
    "name": "solc",
    "version": "0.5.16+commit.9c3226ce.Emscripten.clang"
  },
  "schemaVersion": "3.4.1",
  "updatedAt": "2021-05-11T21:25:49.557Z",
  "devdoc": {
    "methods": {
      "approve(address,uint256)": {
        "details": "Approves another address to transfer the given token ID The zero address indicates there is no approved address. There can only be one approved address per token at a given time. Can only be called by the token owner or an approved operator.",
        "params": {
          "to": "address to be approved for the given token ID",
          "tokenId": "uint256 ID of the token to be approved"
        }
      },
      "balanceOf(address)": {
        "details": "Gets the balance of the specified address.",
        "params": {
          "owner": "address to query the balance of"
        },
        "return": "uint256 representing the amount owned by the passed address"
      },
      "getApproved(uint256)": {
        "details": "Gets the approved address for a token ID, or zero if no address set Reverts if the token ID does not exist.",
        "params": {
          "tokenId": "uint256 ID of the token to query the approval of"
        },
        "return": "address currently approved for the given token ID"
      },
      "isApprovedForAll(address,address)": {
        "details": "Tells whether an operator is approved by a given owner.",
        "params": {
          "operator": "operator address which you want to query the approval of",
          "owner": "owner address which you want to query the approval of"
        },
        "return": "bool whether the given operator is approved by the given owner"
      },
      "name()": {
        "details": "Gets the token name.",
        "return": "string representing the token name"
      },
      "ownerOf(uint256)": {
        "details": "Gets the owner of the specified token ID.",
        "params": {
          "tokenId": "uint256 ID of the token to query the owner of"
        },
        "return": "address currently marked as the owner of the given token ID"
      },
      "safeTransferFrom(address,address,uint256)": {
        "details": "Safely transfers the ownership of a given token ID to another address If the target address is a contract, it must implement `onERC721Received`, which is called upon a safe transfer, and return the magic value `bytes4(keccak256(\"onERC721Received(address,address,uint256,bytes)\"))`; otherwise, the transfer is reverted. Requires the msg.sender to be the owner, approved, or operator",
        "params": {
          "from": "current owner of the token",
          "to": "address to receive the ownership of the given token ID",
          "tokenId": "uint256 ID of the token to be transferred"
        }
      },
      "safeTransferFrom(address,address,uint256,bytes)": {
        "details": "Safely transfers the ownership of a given token ID to another address If the target address is a contract, it must implement `onERC721Received`, which is called upon a safe transfer, and return the magic value `bytes4(keccak256(\"onERC721Received(address,address,uint256,bytes)\"))`; otherwise, the transfer is reverted. Requires the msg.sender to be the owner, approved, or operator",
        "params": {
          "_data": "bytes data to send along with a safe transfer check",
          "from": "current owner of the token",
          "to": "address to receive the ownership of the given token ID",
          "tokenId": "uint256 ID of the token to be transferred"
        }
      },
      "setApprovalForAll(address,bool)": {
        "details": "Sets or unsets the approval of a given operator An operator is allowed to transfer all tokens of the sender on their behalf.",
        "params": {
          "approved": "representing the status of the approval to be set",
          "to": "operator address to set the approval"
        }
      },
      "supportsInterface(bytes4)": {
        "details": "See `IERC165.supportsInterface`.     * Time complexity O(1), guaranteed to always use less than 30 000 gas."
      },
      "symbol()": {
        "details": "Gets the token symbol.",
        "return": "string representing the token symbol"
      },
      "tokenByIndex(uint256)": {
        "details": "Gets the token ID at a given index of all the tokens in this contract Reverts if the index is greater or equal to the total number of tokens.",
        "params": {
          "index": "uint256 representing the index to be accessed of the tokens list"
        },
        "return": "uint256 token ID at the given index of the tokens list"
      },
      "tokenOfOwnerByIndex(address,uint256)": {
        "details": "Gets the token ID at a given index of the tokens list of the requested owner.",
        "params": {
          "index": "uint256 representing the index to be accessed of the requested tokens list",
          "owner": "address owning the tokens list to be accessed"
        },
        "return": "uint256 token ID at the given index of the tokens list owned by the requested address"
      },
      "tokenURI(uint256)": {
        "details": "Returns an URI for a given token ID. Throws if the token ID does not exist. May return an empty string.",
        "params": {
          "tokenId": "uint256 ID of the token to query"
        }
      },
      "totalSupply()": {
        "details": "Gets the total amount of tokens stored by the contract.",
        "return": "uint256 representing the total amount of tokens"
      },
      "transferFrom(address,address,uint256)": {
        "details": "Transfers the ownership of a given token ID to another address. Usage of this method is discouraged, use `safeTransferFrom` whenever possible. Requires the msg.sender to be the owner, approved, or operator.",
        "params": {
          "from": "current owner of the token",
          "to": "address to receive the ownership of the given token ID",
          "tokenId": "uint256 ID of the token to be transferred"
        }
      }
    }
  },
  "userdoc": {
    "methods": {}
  }
}